:020000040800F2
:1000000028D5002089020008C7380008BD3500083F
:10001000C3380008D50A0008B94B000800000000EA
:100020000000000000000000000000006146000821
:10003000D70B000800000000C9380008634600081C
:10004000AD020008AD020008AD020008AD020008D4
:10005000AD020008AD020008AD020008AD020008C4
:10006000AD020008AD020008AD020008AD020008B4
:10007000AD020008AD020008AD020008AD020008A4
:10008000AD020008AD020008AD020008AD02000894
:10009000AD020008AD020008AD020008AD02000884
:1000A000AD020008AD020008AD020008AD02000874
:1000B000AD020008AD02000881460008AD0200084C
:1000C000AD020008AD020008AD020008AD02000854
:1000D000AD020008994B0008A94B0008AD020008CA
:1000E000AD020008AD020008AD020008AD02000834
:1000F000AD020008AD020008AD020008AD02000824
:10010000AD020008AD020008AD020008AD02000813
:10011000AD020008AD020008AD020008AD02000803
:10012000AD020008AD020008AD020008AD020008F3
:10013000AD020008AD020008AD020008AD020008E3
:10014000AD020008AD020008AD020008AD020008D3
:10015000D90A0008AD020008E90A0008AD0200084B
:10016000AD020008AD020008AD020008AD020008B3
:10017000AD020008AD020008AD020008000000005A
:10018000AD020008AD02000800F002F800F06DF8C2
:100190000AA090E8000C82448344AAF10107DA45E2
:1001A00001D100F062F8AFF2090EBAE80F0013F0C7
:1001B000010F18BFFB1A43F00103184740DE00008F
:1001C00060DE00000A444FF0000C10F8013B13F011
:1001D000070408BF10F8014B1D1108BF10F8015BA0
:1001E000641E05D010F8016B641E01F8016BF9D193
:1001F00013F0080F1EBF10F8014BAD1C0C1B09D1EA
:100200006D1E58BF01F801CBFAD505E014F8016B5B
:1002100001F8016B6D1EF9D59142D6D370470000ED
:100220000023002400250026103A28BF78C1FBD8FF
:10023000520728BF30C148BF0B607047642900F0E7
:100240005B81752900F05881782900F0918163293C
:1002500000F0EB83732900F0F083002070471FB596
:100260000AF043FE1FBD10B510BD00F005FC11469D
:10027000FFF7F5FF07F004FC00F023FC03B4FFF7E1
:10028000F2FF03BC04F0BDFC0C48016841F47001AE
:1002900001600B4880470B480047FEE7FEE7FEE79A
:1002A000FEE7FEE7FEE7FEE7FEE7FEE7FEE700000B
:1002B00005480649044A064B7047000088ED00E0F7
:1002C0006D4600088901000828D1002028D50020AB
:1002D00028D10020704753EA020C00F069802DE914
:1002E000F04B4FF00006002B1FBFB3FA83F503FA63
:1002F00005F424FA05F65E4012BF1643B2FA82F501
:1003000002FA05F4C5F120051EBF22FA05FC44EAF5
:100310000C04203556EA044C4FEA144418BF641C00
:100320004FF000084FF00009904271EB030C39D3F5
:10033000002919BFB1FA81F701FA07F6B0FA80F780
:1003400000FA07F6C7F120071EBF20FA07FC46EAAD
:100350000C062037B6FBF4FCA7EB0507103F07F0AF
:100360001F0BCBF120060CFA0BFB2CFA06F644BF50
:10037000B3460026202FA4BF5E464FF0000B5BEA79
:10038000060C08BF4FF0010B19EB0B09ABFB027C0D
:1003900048EB0608C01B06FB02CC0BFB03CC71EB41
:1003A0000C01C1E70B46024641464846BDE8F08BCA
:1003B00013B54FF000004FF00001AFF30080BDE82F
:1003C0001C40704710B54C1084EA530404D54042D9
:1003D000C1F1000138BF491E1B4204D55242C3F18E
:1003E000000338BF5B1EFFF776FF14F0804F04D088
:1003F0004042C1F1000138BF491E14F0004F04D043
:100400005242C3F1000338BF5B1E10BD0FB4044954
:1004100010B503AA029800F015FB10BC5DF814FBA0
:10042000080000200FB41CB50C0007AA009001D0F2
:100430002044401E074B7B4469460190069800F01B
:10044000CAFA002C03D06946002000F0D7FA1CBC81
:100450005DF814FBCD05000070B5044685690068A1
:10046000C10601D5302600E02026C00707D070BDA8
:10047000D4E9012130469047206A401C20626D1E5D
:10048000F6D570BD70B5044685690078C00707D100
:1004900070BDD4E9012120209047206A401C2062D1
:1004A0006D1EF6D570BD70B50C460546012A05D007
:1004B0002878800600D5EA69002302E0012305E0E0
:1004C0005B1C934202D2E05C0028F9D1A869E618CF
:1004D000C01AA861286A184428622846FFF7BCFFA2
:1004E00004E0D5E9012114F8010B9047B442F8D398
:1004F0002846FFF7C7FF70BD2DE9F04106460024EE
:1005000010687529314616A510D0AFF30080002879
:1005100002DA404213A507E031688A0701D512A527
:1005200002E0490704D511A5012401E0AFF30080E2
:1005300000210A2206F1240709E0B0FBF2FCB0FB1F
:10054000F2F302FB1C00303078541846491C002896
:10055000F3D123462A463046BDE8F04100F0DCB92D
:10056000000000002D0000002B0000002000000013
:1005700070B504460D4621461068AFF3008021880F
:10058000090502D50F4A7A4402E00E4A7A440E3237
:10059000002104F1240305E000F00F060009965D38
:1005A0005E54491C0028F7D120780023000704D5A9
:1005B000702D02D009B1022311322046BDE87040EF
:1005C00000F0AAB922D800002DE9F05F8946044660
:1005D0004FF0000ADFF874B1FB44C0F820A02046B9
:1005E000E1688847002874D0252806D0D4E9012185
:1005F0009047206A401C2062F1E700265F462046B3
:10060000E16888472028054607DB312D05D2781997
:1006100010F8200C08B10643F1E7B00701D526F029
:100620000406C4F81CA00027C4F818A02A2D09D07D
:10063000284604F0DFFA38B304EB8708303DC8F8E9
:10064000185019E059F8041B204604EB8702916109
:10065000E1688847012F054618D1E069002820DAB3
:1006600026F020061DE0D8F8180000EB800005EB0E
:1006700040003038C8F818002046E1688847054631
:1006800004F0B8FA0028EED1012F0AD02E2D08D19F
:100690002046E16888477F1C0546022F46F0200669
:1006A000C4DBA069002803DA404246F00106A061DD
:1006B000F00701D026F010066C2D0BD0682D09D064
:1006C0004C2D39D06A2D35D0742D35D07A2D33D0BC
:1006D00016E038E0E1682F4620468847B8420546D4
:1006E00009D16C2F26D04FF48060E1680643204684
:1006F0008847054604E06C2F1AD04FF480700643FB
:100700000DB3A5F14100192802D8203546F4006642
:100710004A462946204626604E46FFF78FFD80B1A7
:1007200001280BD0F61D26F0070000F1080956E756
:100730004020E4E78020D8E70020D6E706F104094E
:100740004DE7284652E7206ABDE8F09FF8D7000041
:1007500040EA0103024630B59B0710D14FF0013447
:1007600000E008C208C91D1B9D4315EAC41FF8D04C
:1007700013F0FF0102F8011B0DD01B0AF8E711F876
:10078000013B002B02F8013B05D011F8013B002B87
:1007900002F8013BF3D130BD02F0FF0343EA03222C
:1007A00042EA024200F002B84FF000020429C0F011
:1007B000128010F0030C00F01B80CCF1040CBCF193
:1007C000020F18BF00F8012BA8BF20F8022BA1EBE5
:1007D0000C0100F00DB85FEAC17C24BF00F8012BCA
:1007E00000F8012B48BF00F8012B70474FF00002C2
:1007F00000B5134694469646203922BFA0E80C5017
:10080000A0E80C50B1F12001BFF4F7AF090728BFF1
:10081000A0E80C5048BF0CC05DF804EB890028BF6D
:1008200040F8042B08BF704748BF20F8022B11F096
:10083000804F18BF00F8012B704710B5044610F028
:10084000030F08BF11F0030F40F015804FF0013E79
:10085000121FC0F20E8051F8043BA3EB0E0C2CEAE1
:10086000030C1CEACE1C08BF40F8043BF0D0A1F1F9
:10087000040102F10402521E08DB11F8013B002BB7
:1008800000F8013BF7D11146FFF78EFF204610BD5F
:100890004FF0013C50F8042B51F8043B9A4221D10F
:1008A000A2EB0C03934313EACC1317D150F8042B9B
:1008B00051F8043B9A4215D1A2EB0C03934313EA7F
:1008C000CC130BD150F8042B51F8043B9A4209D1B8
:1008D000A2EB0C03934313EACC13DBD04FF00000E0
:1008E000704700BFD01A01BAB1FA81F101F01801C6
:1008F00022FA01F0CB40C1F12001DBB2C0B2C01A34
:100900002CFA01F3D11A914311EAC311E6D17047D1
:1009100070477047704770472DE9F0470D4699467C
:100920009246044600F124080168880604D5E0696F
:1009300021F01001216000E00120A84201DD471BE9
:1009400000E00027A1697A1902EB0900081AA061EA
:100950002078C00602D42046FFF77EFD002608E07E
:10096000D4E901211AF806009047206A401C761C41
:1009700020624E45F4DB2078C0060AD52046FFF7FA
:100980006BFD06E0D4E9012130209047206A401C2D
:100990002062381EA7F10107F4DC07E0D4E9012149
:1009A00018F805009047206A401C2062281EA5F117
:1009B0000105F3DC2046FFF765FD2078000602D52F
:1009C0000220BDE8F0870120FBE7000001694A1C16
:1009D00002610878704700B58FB0CDE90131002180
:1009E000059105497944CDE9031011466846FFF7A2
:1009F000EBFD0FB000BD0000E5FFFFFF0A6802F845
:100A0000010B0A607047D1E900239A4202D2531CBD
:100A10000B601070704710B5436913B1AFF30080DD
:100A200001E0FFF740FD012010BD127800F1240124
:100A30000A7000224A700122EDE711684FF0FF3280
:100A4000E9E70000074B70B50D467B44FFF7C3FF95
:100A50000446284600F00CF810B14FF0FF3070BD8E
:100A6000204670BDC366000000487047C8D0002013
:100A7000007B00F0800070477546FFF7F5FFAE463B
:100A800005006946534620F00700854618B020B59A
:100A9000FFF70EFCBDE820404FF000064FF00007C6
:100AA0004FF000084FF0000B21F00701AC46ACE816
:100AB000C009ACE8C009ACE8C009ACE8C0098D4683
:100AC000704710B50446AFF300802046BDE81040E3
:100AD000FFF7D4BB00BFFEE710B5024800F05AF99B
:100AE00010BD00001004002010B5024800F052F9BB
:100AF00010BD00007004002001460878103818234B
:100B0000B0FBF3F20848805CC865032A05D9086881
:100B10006FF30900001D886503E008686FF30900A2
:100B20008865886D704700007ED900080146002066
:100B30008A6A8B69CBB932B1012A0DD0022A03D05F
:100B4000032A10D10EE000BFCB6A03F08073B3F12B
:100B5000807F00D1012007E0CB6AB3F1C07F00D1D4
:100B6000012001E000E000BF34E08B69B3F5005FD5
:100B70001AD132B1012A07D0022A03D0032A11D197
:100B80000AE000BF01200EE0CB6A03F08073B3F1EE
:100B9000807F00D1012006E0CB6AB3F1C07F00D195
:100BA000012000E000BF15E032B1012A05D0022A81
:100BB00004D0032A0CD103E000BF00BF012008E0ED
:100BC000CB6A03F08073B3F1807F00D1012000E095
:100BD00000BF00BF7047704770B504461D46002334
:100BE000B5F5804F13D154F822300C480340D1E9B9
:100BF000000640EA06108E6840EA06208E8940EA28
:100C000006408E693043034344F8223003E06FF01E
:100C1000704044F82200002070BD00000000F0CFBA
:100C200010B503460022086853F8202012480240FD
:100C3000D1E901042043CC6820430C6920434C696E
:100C400020438C692043CC6920430C6A20434C6AC2
:100C500020438C6A2043CC6A2043CC6B20430C6B2E
:100C6000204302438868082801D142F04002086806
:100C700043F82020002010BD8000F0FF30B503466F
:100C80000024501C53F8204004F04044D1E90005F2
:100C900040EA05108D6840EA05208D8940EA054547
:100CA000088A401E45EA0055087D801E45EA00601E
:100CB0008D6928430443501C43F82040002030BD78
:100CC00070B50446A56D00F021FB064694F835008A
:100CD000022808D08020606500BF002084F834001E
:100CE00000BF012070BD2068006820F01600216858
:100CF00008602068406920F0800021684861206C0D
:100D000008B9A06C28B12068006820F008002168AC
:100D100008602068006820F00100216808600FE08A
:100D200000F0F4FA801B05280AD92020606500BF76
:100D3000002084F8340000BF032084F83500D1E798
:100D40002068006800F001000028E9D194F85C10E8
:100D50003F208840A86000BF002084F8340000BF16
:100D6000012084F835000020BCE7014691F83500E9
:100D7000022803D08020486501207047052081F8B3
:100D800035000868006820F001000A681060002043
:100D9000F3E70000F8B50446002000908C48006896
:100DA0004FF41651B0FBF1F7A56D2E6894F85C1066
:100DB00008208840304098B12068006800F00400A6
:100DC00070B12068006820F004002168086094F881
:100DD0005C1008208840A860606D40F001006065EC
:100DE00094F85C1001208840304068B12068406968
:100DF00000F0800040B194F85C1001208840A860A9
:100E0000606D40F00200606594F85C10042088403A
:100E1000304068B12068006800F0020040B194F8EA
:100E20005C1004208840A860606D40F0040060659C
:100E300094F85C1010208840304078B32068006837
:100E400000F0080050B394F85C1010208840A860AF
:100E50002068006800F4802080B12068006800F4F9
:100E6000002028B9206CC8B12046216C884715E0C5
:100E7000A06C98B12046A16C88470FE020680068FC
:100E800000F4807028B92068006820F0080021680C
:100E90000860206C10B12046216C884794F85C10E3
:100EA000202088403040002865D02068006800F08D
:100EB000100000285FD094F85C1020208840A860C3
:100EC00094F83500052828D12068006820F0160025
:100ED000216808602068406920F08000216848612E
:100EE000206C08B9A06C28B12068006820F00800C8
:100EF0002168086094F85C103F208840A86000BF1B
:100F0000002084F8340000BF012084F83500206DF3
:100F100010B12046216D8847F8BD2068006800F4B4
:100F2000802080B12068006800F4002028B9606C3F
:100F300010B12046616C88471DE0E06BD8B12046B7
:100F4000E16B884717E02068006800F4807068B99A
:100F50002068006820F010002168086000BF0020B1
:100F600084F8340000BF012084F83500E06B10B134
:100F70002046E16B8847606D38B3606D00F001007A
:100F8000F0B1052084F835002068006820F00100E9
:100F90002168086000BF0098401C0090B84200D94A
:100FA00005E02068006800F001000028F3D100BFD0
:100FB00000BF002084F8340000BF012084F8350011
:100FC000E06C10B12046E16C884700BFA4E7000048
:100FD000000000202DE9F0410446002500F096F9BC
:100FE000074614B90120BDE8F081606A00B100BF76
:100FF00000BF002084F8340000BF022084F83500D0
:101000002068006820F00100216808600AE000F014
:101010007DF9C01B052805D920206065032084F8D0
:101020003500E0E72068006800F001000028EED1FC
:101030002068056821480540D4E901010843E168BA
:1010400008432169084361690843A1690843E169CC
:101050000843216A08430543606A042803D1D4E9A0
:101060000B0108430543206805602068456925F0A9
:101070000705606A0543606A04280DD1A06A05432C
:10108000E06A48B12046FFF751FD28B14020606575
:10109000012084F83500A6E7206845612046FFF767
:1010A0002BFD064694F85C103F208840B06000207D
:1010B0006065012084F83500002094E73F8010F03F
:1010C00010B50446A0B204F0A9FC10BDF8B5024664
:1010D0000B460025002400200021DEE0012606FA50
:1010E00001F51E6806EA0504AC4275D11E7906F0CA
:1010F0000306012E04D01E7906F00306022E13D13A
:1011000090684F000326BE40B0434F00DE68BE40EB
:1011100030439060506801268E40B0431E79C6F37C
:1011200000168E40304350601E7906F00306032EF1
:1011300009D0D0684F000326BE40B0434F009E68E0
:10114000BE403043D0601E7906F00306022E13D154
:10115000CF0802F1200656F827004E07F70E0F269B
:10116000BE40B0434F07FF0E1E69BE403043CF085C
:1011700002F1200646F8270010684F000326BE4003
:10118000B0431E7906F003064F00BE4030431060A6
:101190005E6806F08056B6F1805F7DD100BF002604
:1011A0000096404E366846F480463E4F3E603E46CE
:1011B000366806F48046009600BF00BF3A4E8F089E
:1011C00056F827008E07370F0F26BE40B043374E24
:1011D000B24202D1002624E05EE0354EB24201D197
:1011E00001261EE0334EB24201D1022619E0324EF2
:1011F000B24201D1032614E0304EB24201D104269E
:101200000FE02F4EB24201D105260AE02D4EB24228
:1012100001D1062605E02C4EB24201D1072600E09E
:1012200008268F073F0FBE4030431F4E8F0846F8F9
:101230002700264E3068A0435E6806F48036B6F577
:10124000803F00D12043214E3060361D3068A043DE
:101250005E6806F40036B6F5003F00D120431B4E11
:10126000361D3060361D3068A0435E6806F4801677
:10127000B6F5801F00D12043144E08363060361D6D
:101280003068A0435E6806F40016B6F5001F00D172
:1012900020430E4E0C363060491C1029FFF41EAF5F
:1012A000F8BD000044380240083801400000024008
:1012B0000004024000080240000C024000100240FE
:1012C0000014024000180240001C0240003C014093
:1012D000024613690B400BB1012000E0002070476B
:1012E00010B5426921EA020302EA010443EA044319
:1012F000836110BD0AB1816101E00B048361704715
:1013000001480068000C7047002004E001480068B4
:10131000704700001000002070B504460CB9012091
:1013200070BD94F83D0028B9002084F83C002046A8
:1013300000F092F9242084F83D002068006820F035
:101340000100216808602068006840F400402168BE
:1013500008602068006820F400402168086000F000
:1013600031FB05465C496068884206D85B48854287
:1013700001D2012007E0002005E05948854201D252
:10138000012000E00020012800D1C9E75548B5FB45
:10139000F0F62068406820F03F0030432168486044
:1013A0004D496068884201D8701C07E04FF4967080
:1013B00070434FF47A71B0FBF1F0401C2168096A68
:1013C00021F03F0108432168086243496068884270
:1013D00014D8681E61684900B0FBF1F0401CC0F3EE
:1013E0000B00042801D204203DE0681E616849001A
:1013F000B0FBF1F0401CC0F30B0034E0A06838B93A
:10140000681E616801EB4101B0FBF1F0401C0AE08D
:10141000681E616801EBC10202EB0111B0FBF1F043
:10142000401C40F48040C0F30B0008B901201AE0D2
:10143000A06848B9681E616801EB4101B0FBF1F09A
:10144000401CC0F30B000CE0681E616801EBC10298
:1014500002EB0111B0FBF1F0401CC0F30B0040F4B3
:10146000804040F400402168C9694CF6FF72914306
:1014700008432168C861D4E9070108432168096865
:1014800021F0C001084321680860D4E90310084333
:101490002168896848F2FF329143084321688860D7
:1014A000D4E9050108432168C96821F0FF01084318
:1014B0002168C8602068006840F001002168086069
:1014C00000202064202084F83D000020206384F860
:1014D0003E0000BF24E70000A086010080841E00BB
:1014E00000093D0040420F002DE9F84304468946BB
:1014F00016461F46DDF82080FFF708FF054694F8E2
:101500003D0020287ED11923012251492046009513
:1015100002F004F910B10220BDE8F88300BF94F88E
:101520003C00012801D10220F6E7012084F83C00AC
:1015300000BF2068006800F0010028B9206800683A
:1015400040F00100216808602068006820F4006015
:1015500021680860212084F83D00102084F83E00B6
:101560000020206466626785608D20853948E062CE
:101570002B4642464946204602F042F808B1012077
:10158000CAE700BF002000902068406900902068F2
:101590008069009000BF00BF44E02A4641462046D3
:1015A00002F061F950B1206C042805D12068006870
:1015B00040F40070216808600120ADE7606A00789F
:1015C00021680861606A401C6062608D401E608511
:1015D000208D401E208520684069C0F3800070B1D6
:1015E000208D60B1606A007821680861606A401CE3
:1015F0006062608D401E6085208D401E20852A46D9
:10160000414600E022E0204602F05AF850B1206C3A
:10161000042805D12068006840F400702168086043
:10162000012079E7208D0028B7D12068006840F4B8
:10163000007021680860202084F83D00002084F8B4
:101640003E0000BF84F83C0000BF65E7022063E76E
:10165000020010000000FFFF10B586B004461B49D1
:10166000206888422FD100BF0020009018480068F1
:1016700040F40010164908600846006800F40010A5
:10168000009000BF00BF00BF00200090104810383D
:10169000006840F002000E491039086008460068F2
:1016A00000F00200009000BF00BFC0200190122097
:1016B000029001200390032004900420059001A9CA
:1016C0000448FFF703FD06B010BD000000540040C1
:1016D000403802400004024003480068034909788A
:1016E00008440149086070471000002018000020DD
:1016F00010B50A48006840F40070084908600846C0
:10170000006840F480600860032000F07FF80F203C
:1017100000F006F800F02AF8002010BD003C02405E
:1017200070B504460E4800784FF47A71B1FBF0F0C2
:101730000C490968B1FBF0F5284601F085FB08B1BA
:10174000012070BD102C07D200222146501E00F04F
:101750001EF80548046001E00120F2E70020F0E7F0
:1017600018000020000000201400002070470146EF
:101770000846002809DB00F01F0301229A404309B4
:101780009B0003F1E023C3F8002100BF70472DE95F
:10179000F05F80460D461646002703F00FFA074615
:1017A00039462A46334601F00700C0F1070ABAF16C
:1017B000040F02D94FF0040A01E0C0F1070AD14634
:1017C00000F1040ABAF1070F02D24FF0000A01E05B
:1017D000A0F1030AD4464FF0010A0AFA09FAAAF165
:1017E000010A0AEA020A0AFA0CFA4FF0010B0BFA94
:1017F0000CFBABF1010B0BEA030B4AEA0B0421468D
:10180000404603F0E3F9BDE8F09F000000BF00F0A0
:101810000702064B19684FF6FF031940044B0B43B0
:1018200043EA0221014B196000BF70470CED00E054
:101830000000FA0570B504460D460CB9012070BDD4
:101840005848006800F00700A84209D255490D70B9
:101850000846006800F00700A84201D00120EEE72A
:10186000207800F0020002281DD1207800F004004A
:10187000042805D14C48006840F4E0504A4908600B
:10188000207800F00800082805D14748006840F497
:101890006040454908604448006820F0F000A168B5
:1018A000084341490860207800F00100A8B360684F
:1018B000012807D13C4808380068C0F34040B8B957
:1018C0000120BCE76068022802D06068032807D1C5
:1018D000354808380068C0F3406048B90120AEE7D9
:1018E000314808380068C0F3400008B90120A6E775
:1018F0002D48006820F00300616808432A49086009
:10190000FFF704FD064609E0FFF700FD801B41F2EA
:101910008831884202D9032091E707E02248006815
:1019200000F00C006168B0EB810FEDD11D4800683C
:1019300000F00700A84209D91A490D70084600684E
:1019400000F00700A84201D0012078E7207800F0DD
:101950000400042807D11448006820F4E050E1682E
:10196000084311490860207800F00800082808D1D1
:101970000D48006820F46040216940EAC1000A492E
:10198000086000F03FF808490968C1F30311074AED
:10199000515CC8400649086006480068FFF7C0FE71
:1019A00000204CE7003C024008380240F4AE00083A
:1019B000000000201400002001480068704700006B
:1019C0000000002000B5FFF7F7FF04490968C1F3E4
:1019D0008221034A515CC84000BD00000838024023
:1019E00004AF000800B5FFF7E7FF04490968C1F339
:1019F0004231034A515CC84000BD00000838024033
:101A000004AF00082DE9F047002400250026A14678
:101A10002548006800F00C0020B1042805D00828F3
:101A20003AD105E0DFF8849039E0DFF8849036E0C1
:101A30001D48001F006800F03F041B48001F00689D
:101A400000F4800078B11A481749091F0968C1F3EA
:101A50008811A0FB01700146224600233846FEF79C
:101A60003AFC05460EE011480F49091F0968C1F309
:101A70008811A0FB01700146224600233846FEF77C
:101A80002AFC05460848001F0068C0F30140401CBE
:101A90004600B5FBF6F902E0DFF8109000BF00BF8A
:101AA0004846BDE8F0870000083802400024F400F2
:101AB00000127A00F8B504460CB90120F8BD207870
:101AC00000F00100002874D0F948006800F00C0014
:101AD00004280DD0F648006800F00C00082813D147
:101AE000F348001F006800F48000B0F5800F0BD1B0
:101AF000EF4808380068C0F34040002859D06068BB
:101B0000002856D10120D9E700BF6068B0F5803FBA
:101B100008D1E7480838006840F48030E4490839C3
:101B200008601EE06068B0F5A02F0DD1E0480838CD
:101B3000006840F48020DE490839086008460068E3
:101B400040F4803008600CE0D9480838006820F480
:101B50008030D749083908600846006820F48020A2
:101B6000086000BF606890B1FFF7D0FB054606E053
:101B7000FFF7CCFB401B642801D903209EE7CC482B
:101B800008380068C0F340400028F1D011E0FFF7AA
:101B9000BDFB054606E0FFF7B9FB401B642801D9F1
:101BA00003208BE7C24808380068C0F34040002893
:101BB000F1D1207800F0020002285FD1BC48006813
:101BC00000F00C0058B1BA48006800F00C0008287A
:101BD0001CD1B748001F006800F48000B0B9B448B9
:101BE00008380068C0F3400020B1E068012801D047
:101BF000012063E7AE480838006820F0F80021694A
:101C000040EAC100AA490839086037E0E06800B33B
:101C10000120A8490860FFF779FB054606E0FFF7B9
:101C200075FB401B022801D9032047E7A04808386C
:101C30000068C0F340000028F1D09D4808380068D3
:101C400020F0F800216940EAC1009949083908608C
:101C500014E0002097490860FFF758FB054606E0AE
:101C6000FFF754FB401B022801D9032026E79048C8
:101C700008380068C0F340000028F1D1207800F057
:101C8000080008282CD16069A8B101208A490860A1
:101C9000FFF73CFB054606E0FFF738FB401B022838
:101CA00001D903200AE782486C300068C0F3400085
:101CB0000028F1D014E000207F490860FFF726FBE0
:101CC000054606E0FFF722FB401B022801D903204E
:101CD000F4E677486C300068C0F340000028F1D18A
:101CE000207800F00400042870D1002770483830B4
:101CF000006800F0805090B900BF002000906C4850
:101D00003830006840F08050694938310860084632
:101D1000006800F08050009000BF00BF01276748B6
:101D2000006800F48070B0B96448006840F48070C6
:101D300062490860FFF7EAFA054606E0FFF7E6FAAF
:101D4000401B022801D90320B8E65C48006800F473
:101D500080700028F2D000BFA068012808D1544844
:101D60006830006840F001005149683108601DE0AA
:101D7000A06805280DD14E486830006840F0040086
:101D80004B49683108600846006840F0010008606F
:101D90000CE047486830006820F001004449683191
:101DA00008600846006820F00400086000BFA068D2
:101DB000A8B1FFF7ABFA054609E0FFF7A7FA401B09
:101DC00041F28831884202D9032077E626E038487C
:101DD00068300068C0F340000028EED013E0FFF741
:101DE00095FA054608E0FFF791FA401B41F2883169
:101DF000884201D9032061E62D4868300068C0F3AD
:101E000040000028EFD1012F07D129483830006861
:101E100020F0805026493831086000BFA0690028B2
:101E200045D02348006800F00C0008285DD0A06968
:101E3000022845D100201F490866FFF767FA0546CA
:101E400006E0FFF763FA401B022801D9032035E6BC
:101E5000174808380068C0F340600028F1D1D4E981
:101E600007010843616A40EA81110122A06AC2EBBE
:101E7000500041EA00412C20005D41EA00600C491D
:101E8000091F086001200B490866FFF73FFA054665
:101E900006E0FFF73BFA401B022801D903200DE6BC
:101EA000034808380068C0F340600028F1D049E0DA
:101EB0000838024000004742800E47420070004050
:101EC000002021490866FFF721FA054606E0FFF7E2
:101ED0001DFA401B022801D90320EFE51B480068CA
:101EE000C0F340600028F2D12CE0A069012800D1A5
:101EF000E4E51648001D0668A069012820D006F414
:101F00008001E06981421BD106F03F01206A8142D5
:101F100016D147F6C0703040616AB0EB811F0FD117
:101F200006F440310122A06AC2EB5000B1EB004F31
:101F300006D106F070612C20005DB1EB006F01D07E
:101F40000120BBE50020B9E500004742003802400F
:101F5000F0B589B004460E460027032084F834000B
:101F6000606C032820D0B6F5805F04D1A06B40F0F0
:101F70008050A0631CE0B6F5006F07D1204602F048
:101F800099FA0546A06B2843A06311E03EB92046AC
:101F900002F05CFA0546A06B2843A06308E0A06B42
:101FA00040F00060A06303E0A06B40F08050A063AD
:101FB000A06B38B1174821688863012084F8340089
:101FC000012713E060680390A0680490E068059022
:101FD000069660690790A069089006A807C88DE872
:101FE0000700206803A90EC901F094FC4FF40071AA
:101FF000206801F00BFD054635B10648216888636D
:10200000A06B2843A0630127012084F834003846E0
:1020100009B0F0BDFF05400010B50246506E800FBC
:102020000870506EC0F383604870506EC0F301605A
:102030008870506E000CC870B2F86400000A087115
:1020400092F864004871906E000DC880906EC0F3E5
:10205000034008726820805AC0F3C030487268207C
:10206000805AC0F3803088726820805AC0F34030B4
:10207000C8726820805AC0F300300873002048738B
:10208000506C002836D16820805A8005030DD06E30
:1020900043EA90700861D06EC0F3C2600875D06EDC
:1020A000C0F302604875D06EC0F342508875D06EA0
:1020B000C0F38240C875D06EC0F3C230087608699C
:1020C000401C50650B7E506D03F007039B1C0124E0
:1020D0009C4060435065087A00F00F03012098404F
:1020E0009065D2E915035B0A5843D0654FF400733D
:1020F000136621E0506C012813D16820805C8006B3
:10210000830AD06E43EA104008610869401C8302CC
:102110005365536DD3654FF400739365936D1366E8
:102120000AE02E4813689863906B40F080509063EB
:10213000012082F8340010BD6C20805AC0F380303A
:1021400001F8190F6C20805AC0F3C61048706C203B
:10215000805C00F07F008870106FC00FC870106F37
:10216000C0F341700871106FC0F382604871106F46
:10217000C0F383508871106FC0F34050C8710020C5
:102180000872106FC0F3004048727020805AC0F38C
:10219000C03088727020805AC0F38030C8727020BE
:1021A000805AC0F3403008737020805AC0F300306A
:1021B00048737020805AC0F3812088737020805A41
:1021C000C0F30120C8737020805CC0F3460008741F
:1021D0000120487419390020ADE70000FF054000D8
:1021E0000246506C0860906C4860D06C8860106D3E
:1021F000C860506D0861906D4861D06D8861106E47
:10220000C86100207047F8B5044600200090694678
:10221000204602F003F9054615B1A06B2843A063E0
:102220000098C0F343263046F8BD10B504460CB9FB
:10223000012010BD94F8340020B9002020772046FA
:1022400000F068F8032084F83400204600F00CF811
:1022500008B10120EDE70020A0632063012084F88D
:1022600034000020E5E7000070B58AB00446002085
:10227000049005900690079008907620099007A892
:1022800007C88DE80700206804A90EC901F042FBC9
:10229000064616B101200AB070BD00201B49086037
:1022A000206801F051FB01201849A039C1F8A000B5
:1022B000204602F04DF805463DB1012084F8340077
:1022C000A06B2843A0630120E5E7204601F0BFFF93
:1022D00005463DB1012084F83400A06B2843A0637B
:1022E0000120D8E74FF40071206801F08FFB05460C
:1022F0004DB1074821688863A06B2843A063012083
:1023000084F83400C7E70020C5E70000A08025421C
:10231000FF05400010B586B0044659492068884240
:102320007ED100BF002000905648006840F4006055
:10233000544908600846006800F40060009000BF3F
:1023400000BF00BF00BF002000904E481438006856
:1023500040F004004B49143908600846006800F05A
:102360000400009000BF00BF00BF00BF00BF0020FE
:1023700000900846006840F00400086008460068C5
:1023800000F00400009000BF00BF00BF00BF00BF0E
:10239000002000900846006840F0040008600846ED
:1023A000006800F00400009000BF00BF00BF00BF45
:1023B00000BF002000900846006840F0040008605C
:1023C0000846006800F00400009000BF00BF00BF96
:1023D00000BF00BF002000900846006840F00400E5
:1023E00008600846006800F00400009000BF00BFCD
:1023F00000BF00BF00BF002000900846006840F00A
:10240000080008600846006800F00800009000BF5F
:1024100000BF00BF8815019002200290012000E05B
:102420002BE00390022004900C20059001A916488F
:10243000FEF74CFE4FF40070019001A91248FEF720
:1024400045FE4FF48060019001A90F48FEF73EFE63
:102450004FF40060019001A90B48FEF737FE4FF4DE
:102460008050019001A90848FEF730FE0420019039
:1024700001A90648FEF72AFE00BF06B010BD000005
:10248000002C01404438024000080240000C024089
:102490002DE9FF4F89B004468B469946DDF858A0D8
:1024A000FEF734FF02900B9800905D46BBF1000FE1
:1024B00007D1A06B40F00060A06301200DB0BDE823
:1024C000F08F94F8340001287ED10020A06300989A
:1024D00000EB0901E06D814205D9A06B40F000706E
:1024E000A0630120EAE7032084F83400002021687B
:1024F000C862606C012802D00098400200904FF042
:10250000FF3003904FEA492004909020059002206C
:102510000690002007900120089003A9206801F090
:10252000D4F9B9F1010F07D902202063206800997E
:1025300001F0D4FA804606E001202063206800996B
:1025400001F0E8FA8046B8F1000F0DD07548216817
:102550008863A06B40EA0800A063012084F834007F
:10256000002020630120A9E7049E3AE02068406B28
:1025700000F40040E0B1DEB10020019015E02068D9
:1025800001F0EBF907462F706D1C761E380A287093
:102590006D1C761E380C28706D1C761E380E287047
:1025A0006D1C761E0198401C019001980828E6D306
:1025B000FEF7ACFE0299401A504502D2BAF1000F64
:1025C0000FD15848216800E0A6E08863A06B40F076
:1025D0000040A063012084F8340000202063032021
:1025E0006CE72068406B40F22A3108400028BDD0DB
:1025F0002068406B00F48070D0B1B9F1010F17D999
:10260000606C032814D0206801F044FB8046B8F1C8
:10261000000F0DD0434821688863A06B40EA080092
:10262000A063012084F8340000202063012045E7E6
:102630002068406B00F0080068B13A482168886360
:10264000A06B40F00800A063012084F83400002053
:102650002063012032E72068406B00F0020068B17F
:10266000304821688863A06B40F00200A06301201D
:1026700084F834000020206301201FE72068406BAD
:1026800000F0200068B1274821688863A06B40F003
:102690002000A063012084F8340000202063012082
:1026A0000CE729E0206801F058F907462F706D1CEF
:1026B000761E380A28706D1C761E380C28706D1C2A
:1026C000761E380E28706D1C761EFEF71FFE0299CE
:1026D000401A504502D2BAF1000F0DD111482168BD
:1026E0008863A06B40F00040A063012084F83400B0
:1026F000002020630120E1E62068406B00F4001018
:1027000008B1002ECED140F23A50216888630120F2
:1027100084F834000020D1E6A06B40F00050A063A4
:102720000120CBE6FF0540002DE9F04F89B00446BB
:10273000894693469846FEF7E9FD0290DA464D46F3
:10274000B9F1000F07D1A06B40F00060A063012039
:1027500009B0BDE8F08F94F8340001287ED1002044
:10276000A0630AEB0801E06D814205D9A06B40F03F
:102770000070A0630120EBE7032084F83400002000
:102780002168C862606C012801D04FEA4A2A4FF0E4
:10279000FF3003904FEA48200490902005900020DD
:1027A000069007900120089003A9206801F08DF899
:1027B000B8F1010F07D9202020635146206801F0AD
:1027C00087FA064606E0102020635146206801F093
:1027D0009BFA064666B15F4821688863A06B304368
:1027E000A063012084F83400002020630120AFE7BB
:1027F000049F43E02068406B00F4804030B32FB367
:10280000002001901FE0287800906D1C7F1E287822
:10281000009941EA002000906D1C7F1E28780099E5
:1028200041EA004000906D1C7F1E2878009941EA23
:10283000006000906D1C7F1E6946206801F0A5F8BD
:102840000198401C019001980828DCD3FEF75EFD3A
:102850000299411A1298814203D200E074E0129862
:1028600060B93C4821688863A06B3043A0630120B5
:1028700084F8340000202063032069E72068406B5F
:1028800040F21A3108400028B4D02068406B00F4B0
:102890008070B8B1B8F1010F14D9606C032811D061
:1028A000206801F0F7F9064666B12A482168886376
:1028B000A06B3043A063012084F834000020206323
:1028C000012045E72068406B00F0080068B121480E
:1028D00021688863A06B40F00800A063012084F8A1
:1028E000340000202063012032E72068406B00F0B4
:1028F000020068B1174821688863A06B40F00200AD
:10290000A063012084F834000020206301201FE729
:102910002068406B00F0100068B10E4821688863A1
:10292000A06B40F01000A063012084F83400002068
:10293000206301200CE740F23A50216888630120AF
:1029400084F83400002003E7A06B40F00050A0633F
:102950000120FDE6FF05400010B504460CB901203A
:1029600010BD606A38B96068B0F5827F00D105E0BB
:102970000021E16102E0002121616161A06AB0F5FE
:10298000005F00D100BF94F8510028B9002084F8FE
:102990005000204600F050F8022084F851002068D2
:1029A000006820F0400021680860A08800F4827070
:1029B000218901F404410843A18901F4006108431D
:1029C000217C01F002010843217D01F0010108434F
:1029D000218B01F400710843217F01F03801084385
:1029E0002021095D01F080010843218D01F400518F
:1029F0000843216808600421A06901EA104094F8A6
:102A0000241001F01001084321684860A06AB0F565
:102A1000005F03D1A08D80B2216808612068C06981
:102A200020F400602168C86100206065012084F8FE
:102A30005100002094E7000010B586B004462A49F2
:102A4000206888424DD100BF00BF00200090274879
:102A5000006840F00200254908600846006800F060
:102A60000200009000BF00BF00BF00BF00BF0020F9
:102A700000900846006840F00200086008460068C0
:102A800000F00200009000BF00BF00BF00BF00BF09
:102A9000002000900846006840F0020008600846E8
:102AA000006800F00200009000BF00BF00BF0820D7
:102AB0000190022002900120039002200490052042
:102AC000059001A90A48FEF701FB1020019001A919
:102AD0000748FEF7FBFA2020019001A90448FEF701
:102AE000F5FA06B010BD0000003001403038024059
:102AF000000402402DE9F04F85B004468846914617
:102B00001D460E9E0020049001200290002001909E
:102B100000BF94F85000012803D1022005B0BDE8A1
:102B2000F08F012084F8500000BFFEF7EFFB07464E
:102B300094F851B060680390AA46BBF1010F0BD026
:102B40000398B0F5827F04D1A06810B9BBF1040FDF
:102B500002D0022001902CE1B8F1000F03D0B9F1AE
:102B6000000F00D015B90120019022E194F8510026
:102B7000042802D0052084F8510000206065C4F8C4
:102B80003890E587A587C4F83080E586A58620645F
:102B90006064A06AB0F5005F0DD100BF20680068D6
:102BA00020F40050216808602068006840F400505C
:102BB0002168086000BF2068006800F040004028DD
:102BC00005D02068006840F0400021680860E06897
:102BD000B0F5006F56D1606810B1BAF1010F09D19C
:102BE000206B00882168C860206B801C2063E08E09
:102BF000401EE0863FE02068806800F00200022866
:102C00001CD1E08ED0B10298012817D1206B00882A
:102C10002168C860206B801C2063E08E401EE08627
:102C200000200290E08E48B9A06AB0F5005F05D19F
:102C30002068006840F4805021680860206880683F
:102C400000F0010068B1E08F58B12068C068A16B46
:102C50000880A06B801CA063E08F401EE0870120ED
:102C60000290FEF753FBC01BB04204D3701C10B19E
:102C7000032001909DE0E08E0028BCD1E08F002869
:102C8000B9D156E0606810B1BAF1010F09D1206BDB
:102C9000007821680873206B401C2063E08E401E82
:102CA000E08640E02068806800F0020002281CD125
:102CB000E08ED0B10298012817D1206B00782168EE
:102CC0000873206B401C2063E08E401EE0860020CD
:102CD0000290E08E48B9A06AB0F5005F05D1206887
:102CE000006840F48050216808602068806800F027
:102CF000010068B1E08F58B12068C068A16B08700E
:102D0000A06B401CA063E08F401EE0870120029072
:102D1000FEF7FCFAC01BB04201D3701C00B916B913
:102D20000320019045E0E08E0028BBD1E08F002811
:102D3000B8D1A06AB0F5005F12D133460122114626
:102D40002046009701F020FC30B1606D40F0020099
:102D50006065032001902CE02068C068049000BFEB
:102D60002068806800F01000102809D1606D40F0E4
:102D7000020060654FF6EF702168886001200190C5
:102D80003A463146204601F0C9FB20B101200190AE
:102D9000202060650DE0A06850B900BF00200090C1
:102DA0002068C068009020688068009000BF00BF65
:102DB00000BF012084F8510000BF002084F85000BB
:102DC00000BF0198AAE670B504460E4615460CB938
:102DD000012070BD94F8490028B9002084F848000B
:102DE000204600F01CF804F108012068FDF718FFE8
:102DF0003146A2682068FDF741FF2946236BD4E9DC
:102E00000102FDF7E9FEA168206850F8210040F0BA
:102E10000100A268216841F822000020D9E770472C
:102E2000042808D14FF0E021096941F004014FF076
:102E3000E022116107E04FF0E021096921F004016F
:102E40004FF0E0221161704770B504462546681EB8
:102E5000B0F1807F01D301200FE0681E4FF0E02128
:102E600048610F214FF0FF3001F0B0FE00204FF01D
:102E7000E021886107200861002070BD10B504467C
:102E80000CB9012010BD94F83D0028B9002084F849
:102E90003C00204600F025F8022084F83D00211D6A
:102EA000206801F00FFC012084F8460000BF84F880
:102EB0003E0001213F200155402001554120015590
:102EC00000BF00BF012084F8420043200155442088
:102ED00001554520015500BF012084F83D00002028
:102EE000D0E77047014691F83D00012801D001204C
:102EF0007047022081F83D000868C06840F001007A
:102F00000B68D8601A4B086898421BD00868B0F16B
:102F1000804F17D0174B0868984213D0164B08689B
:102F200098420FD0154B086898420BD0144B086894
:102F3000984207D0134B0868984203D0124B086898
:102F400098420CD10868806800F00702062A0CD06D
:102F50000868006840F001000B68186005E0086828
:102F6000006840F001000B6818600020C0E7000016
:102F7000000001400004004000080040000C004038
:102F8000000401400040014000180040054B026869
:102F90009A4206D1044AA2F880180122024B83F813
:102FA0008228704700100140D004002070470000C4
:102FB0002DE9F84F0446206805682068C668206837
:102FC00047694FF00009CA4605F00F09B9F1000F33
:102FD0000AD105F0200038B106F0200020B12046CB
:102FE00001F011FCBDE8F88FB9F1000F72D007F0C5
:102FF000010018B906F4907000286BD005F00100AC
:1030000030B106F4807018B1206C40F001002064EB
:1030100005F0040030B107F0010018B1206C40F059
:103020000200206405F0020030B107F0010018B181
:10303000206C40F00400206405F0080048B106F060
:10304000200010B907F0010018B1206C40F0080012
:103050002064206C70B305F0200028B106F0200039
:1030600010B1204601F0CFFB20684069C0F3801A00
:10307000206C00F0080010B9BAF1000F23D02046F0
:1030800001F096FB2068406900F04000402816D10E
:103090002068406920F0400021684861A06B50B171
:1030A0005648A16B0865A06BFDF75FFE10B1A06BE1
:1030B000016D88470CE02046FFF778FF08E02046C6
:1030C000FFF774FF04E02046FFF770FF0020206444
:1030D00088E7FFE7206B012879D105F01000002870
:1030E00075D006F01000002871D000BF00200090BD
:1030F00020680068009020684068009000BF00BF12
:103100002068406900F04000402839D1A06B006879
:1031100040681FFA80F8B8F1000F30D0A08D40450C
:103120002DDDA4F82E80A06BC069B0F5807F1FD084
:103130002068C06820F480702168C86020684069F9
:1031400020F00100216848612068406920F04000BB
:1031500021684861202084F83E0000202063206818
:10316000C06820F010002168C860A06BFDF7A8FDC2
:10317000A08DE28D801A81B22046FFF707FF31E76C
:10318000A08DE18D401A1FFA80F8E08DE8B1B8F10A
:10319000000F1AD02068C06820F490702168C860C1
:1031A0002068406920F0010021684861202084F8EF
:1031B0003E00002020632068C06820F010002168D5
:1031C000C86041462046FFF7E1FE0BE7FFE705F048
:1031D000800030B106F0800018B1204601F0ABFC51
:1031E00000E705F0400030B106F0400018B120467D
:1031F00001F0F9FAF6E600BFF4E600009D4700088A
:1032000010B504460CB9012010BDA06900B100E062
:1032100000BF94F83D0028B9002084F83C00204607
:1032200000F028F8242084F83D002068C06820F4CD
:1032300000502168C860204601F044FB2068006906
:1032400020F49040216808612068406920F02A003D
:10325000216848612068C06840F400502168C86057
:1032600000202064202084F83D0084F83E000020E7
:10327000CAE7000010B586B004468A492068884233
:1032800055D100BF00BF002000908748006840F47F
:103290000030854908600846006800F4003000905E
:1032A00000BF00BF00BF00BF00BF002000907E48ED
:1032B0001038006840F001007B491039086008466A
:1032C000006800F00100009000BF00BF00BF00BF19
:1032D00000BF002000900846006840F00100086030
:1032E0000846006800F00100009000BF00BF00BF6A
:1032F00004200190022002900120039002200490FB
:103300000720059001A96948FDF7E0FE082001901B
:103310000720059001A96548FDF7D8FE2620FEF795
:1033200026FA032211462620FEF731FAB8E060495A
:1033300020688842FAD100BF00BF002000905A48A0
:10334000001D006840F010005749091D086008463C
:10335000006800F01000009000BF00BF00BF00BF79
:1033600000BF0020009050481038006840F0010075
:103370004D49103908600846006800F001000090CF
:1033800000BF00BF00BF00BF00BF00200090084684
:10339000006840F0010008600846006800F0010085
:1033A000009000BF00BF00BF00BF00BF0020009022
:1033B0000846006840F4800008600846006800F491
:1033C0008000009000BF00BF00BF481501900220A0
:1033D000029001200390032004900720059001A98A
:1033E0003248FDF773FE4FF480600190072005908E
:1033F00001A92E48FDF76AFE2E482F4908604FF0BC
:103400000060486000212C488160C1604FF48061F9
:103410000161002141618161C1614FF400310162AC
:1034200000214162FDF7D6FD00BF2348A0638463FD
:1034300000BF20483030214908604FF000604860EC
:1034400040211E4881600021C1604FF4806101610C
:10345000002141618161C1614FF48031016200212D
:103460004162FDF7B7FD00BF14486063846300BF8D
:10347000002202212520FEF78AF92520FEF777F9A0
:10348000012202214420FEF782F94420FEF76FF961
:10349000022211464620FEF77AF94620FEF767F928
:1034A00006B010BD00440040403802400000024019
:1034B00000100140886402401004002070040020C5
:1034C00070B504460D46164694F83E00202816D1E5
:1034D00005B10EB9012070BD00BF94F83C00012871
:1034E00001D10220F7E7012084F83C0000BF002052
:1034F000206332462946204601F0FAFAEBE7022023
:10350000E9E7000010B504462049206888423BD115
:103510001F48008800F4004088BB1D48008800F464
:10352000804070B11B4800780A2803D00020184959
:10353000088024E01648008840F4004014490880C0
:103540001DE0144800780D2806D11148008840F489
:1035500080400F49088012E00E4800780C49098825
:10356000C1F30D010C4A505409480088401C084919
:10357000088008460088C72801DD00200880012255
:1035800004490648FFF79CFF10BD000000440040BE
:103590000C0000200E000020C00200208803002044
:1035A000044A0168914203D10021034A82F883183A
:1035B0007047000000100140D004002000BFFEE76B
:1035C000014608684069C0F38020B0B16FF48060A4
:1035D0000A68506100200863202081F83D00002027
:1035E00081F83E00086C40F00400086400BF002031
:1035F00081F83C0000BF012070470020FCE700007C
:103600002DE9F84304460D4617469846E66A082E0B
:1036100004D0012E02D016F5803F06D12068006844
:1036200040F480702168086008E0206B122805D102
:103630002068006840F48070216808603B460022E2
:103640004FF001112046CDF8008000F067F860B11E
:103650002068006800F48070B0F5807F02D14FF4DC
:10366000007020640320BDE8F8832069B0F5804F26
:1036700004D105F0FE002168086112E005F44070F5
:10368000F02141EAE0102168086143463A460B49BF
:10369000204600F086F808B10120E4E7E8B221688E
:1036A000086143463A460549891F204600F079F8EB
:1036B00008B10120D7E70020D5E70000080001008D
:1036C00070B504460D46164620E02046FFF778FF09
:1036D00008B1012070BD681CC0B1FDF717FE801B4A
:1036E000A84200D895B900202063202084F83D002E
:1036F000002084F83E00206C40F02000206400BFD1
:10370000002084F83C0000BF0120E3E72068406906
:10371000C0F380000028D8D00020DBE72DE9F0417D
:1037200004460D4617461E46DDF818801CE0701C46
:10373000D0B1FDF7EBFDA0EB0800B04200D89EB978
:1037400000202063202084F83D00002084F83E0003
:10375000206C40F02000206400BF002084F83C0072
:1037600000BF0120BDE8F081C5F3074001280AD160
:1037700020684069A9B20840A9B2884201D101205D
:103780000BE0002009E020688069A9B20840A9B2D6
:10379000884201D1012000E00020B842C7D00020BB
:1037A000E0E72DE9F04104460D4616461F463DE090
:1037B00020684069C0F38020E8B12068006840F4C8
:1037C0000070216808606FF4806021684861002003
:1037D0002063202084F83D00002084F83E00206C07
:1037E00040F00400206400BF002084F83C0000BFCB
:1037F0000120BDE8F081701CC0B1FDF787FDC01B42
:10380000B04200D896B900202063202084F83D0003
:10381000002084F83E00206C40F02000206400BFAF
:10382000002084F83C0000BF0120E2E7C5F3074018
:1038300001280AD120684069A9B20840A9B288428B
:1038400001D101200BE0002009E020688069A9B2C5
:103850000840A9B2884201D1012000E000200028E0
:10386000A6D00020C5E770B504460D46164620E0F8
:103870002046FFF7A5FE08B1012070BD681CC0B14D
:10388000FDF744FD801BA84200D895B900202063B5
:10389000202084F83D00002084F83E00206C40F099
:1038A0002000206400BF002084F83C0000BF0120FD
:1038B000E3E720684069C0F3C0100028D8D000209A
:1038C000DBE700BFFEE77047704710B502460023F4
:1038D0000868506248689062D1E9020420430C698C
:1038E00020434C6920430343D06A20F0F70018437B
:1038F000D062002010BD01460869C0B27047014681
:10390000086800F003007047024602F114004318F3
:10391000186870470FB410B504460021DDE90302B2
:103920001043059A1043069A1043079A1043089AC9
:1039300010430143606847F6FF62904308436060AC
:10394000002010BC5DF814FB10B504460320206075
:103950000220FDF7B5FB002010BD0146D1F8800024
:10396000704710B50246002308689060D1E9010451
:103970002043CC6820430C6920430343D0686FF395
:103980000B001843D060002010BD02460868C2F842
:1039900080000020704770B586B005460C46019443
:1039A0003720029040200390002004904FF4806064
:1039B000059001A92846FFF7D4FF41F2883237214C
:1039C000284600F0DDF90646304606B070BD00001E
:1039D00070B586B005460C460B482043019029205F
:1039E000029040200390002004904FF480600590E6
:1039F00001A92846FFF7B5FF284600F0C9FA064698
:103A0000304606B070BD00000000108070B586B072
:103A100005460C460194102002904020039000209F
:103A200004904FF48060059001A92846FFF799FFA4
:103A300041F288321021284600F0A2F906463046AD
:103A400006B070BD70B586B005460C4601940620E0
:103A5000029040200390002004904FF48060059075
:103A600001A92846FFF77DFF41F28832062128464A
:103A700000F086F90646304606B070BD30B585B018
:103A80000446002000900190029003904FF4806063
:103A9000049069462046FFF764FF204600F050F985
:103AA0000546284605B030BD30B585B004464FF414
:103AB000D5700090082001904020029000200390D3
:103AC0004FF48060049069462046FFF74AFF204685
:103AD00000F0E6FA0546284605B030BD70B586B060
:103AE00005460C46019412200290402003900020CD
:103AF00004904FF48060059001A92846FFF731FF3C
:103B000041F288321221284600F03AF90646304642
:103B100006B070BD70B586B005460C460194112004
:103B2000029040200390002004904FF480600590A4
:103B300001A92846FFF715FF41F2883211212846D6
:103B400000F01EF90646304606B070BDF0B585B0EF
:103B5000064614461D46009407200190402002901E
:103B6000002003904FF48060049069463046FFF7D0
:103B7000F8FE41F288320721304600F001F907468D
:103B8000384605B0F0BD30B585B004460020009041
:103B900002200190C0200290002003904FF480602A
:103BA000049069462046FFF7DCFE204600F0BEF98F
:103BB0000546284605B030BD70B586B005460C46B2
:103BC000019409200290C0200390002004904FF43B
:103BD0008060059001A92846FFF7C3FE284600F043
:103BE000A5F90646304606B070BD30B585B004462E
:103BF000002000903320019040200290002003908C
:103C00004FF48060049069462046FFF7AAFE41F217
:103C100088323321204600F0B3F80546284605B027
:103C200030BD70B586B005460C4601940D2002905B
:103C300040200390002004904FF48060059001A97B
:103C40002846FFF78EFE41F288320D21284600F00B
:103C500097F80646304606B070BD70B586B005468A
:103C60000C46002001900320029040200390002089
:103C700004904FF48060059001A92846FFF771FE7B
:103C800022460321284600F0AFF90646304606B02A
:103C900070BD000030B585B00446002000900C20B7
:103CA000019040200290002003904FF48060049027
:103CB00069462046FFF755FE044A0C21204600F0D5
:103CC0005FF80546284605B030BD000000E1F50567
:103CD00070B586B005460C4601941920029040202C
:103CE0000390002004904FF48060059001A92846BD
:103CF000FFF737FE41F288321921284600F040F8DC
:103D00000646304606B070BD70B586B005460C4616
:103D100001941820029040200390002004904FF45A
:103D20008060059001A92846FFF71BFE41F288320A
:103D30001821284600F024F80646304606B070BD2B
:103D400001460E480068C0084FF47A73B0FBF3F0E8
:103D500041F2883300FB03F200BF101EA2F1010202
:103D600002D14FF000407047486B00F080000028FF
:103D7000F3D0C52088630020F5E700000000002094
:103D80002DE9F04305460F46904666480068C00896
:103D90004FF47A71B0FBF1F000FB08F900BFB9F104
:103DA0000000A9F1010903D14FF00040BDE8F08304
:103DB0006E6B06F045000028F1D006F40060002884
:103DC000EDD1686B00F0040010B10420A863EDE7AA
:103DD000686B00F0010010B10120A863E6E7C52080
:103DE000A8632846FFF787FDB84201D00120DDE730
:103DF00000212846FFF788FD04464B48204008B9BB
:103E00000020D3E704F00040B0F1004F02D14FF0A2
:103E10000070CBE704F08040B0F1804F01D140202A
:103E2000C4E704F00050B0F1005F01D18020BDE78D
:103E300004F08050B0F1805F02D14FF48070B5E79C
:103E400004F00060B0F1006F02D14FF40070ADE7F4
:103E500004F08060B0F1806F02D14FF48060A5E77C
:103E600004F08070B0F1807F02D14FF400609DE7D4
:103E700004F40000B0F5000F02D14FF4805095E734
:103E800004F48000B0F5800F02D14FF400508DE7AC
:103E900004F40010B0F5001F02D14FF4804085E714
:103EA00004F48010B0F5801F02D14FF400407DE78C
:103EB00004F48020B0F5802F02D14FF4003075E774
:103EC00004F40030B0F5003F02D14FF480206DE7DC
:103ED00004F48030B0F5803F02D14FF4002065E754
:103EE00004F40040B0F5004F02D14FF480105DE7BC
:103EF00004F48040B0F5804F02D14FF4001055E734
:103F000004F40050B0F5005F02D14FF480004DE79B
:103F100004F00800082801D1000547E74FF480307D
:103F200044E700000000002008E0FFFD10B5014656
:103F300016480068C0084FF47A74B0FBF4F041F200
:103F4000883400FB04F300BF181EA3F1010302D163
:103F50004FF0004010BD4A6B02F045000028F3D03E
:103F600002F400600028EFD1486B00F0040010B1AB
:103F700004208863EEE7486B00F0010010B10120D7
:103F80008863E7E7C52088630020E3E7000000209E
:103F900010B5014613480068C0084FF47A74B0FBAE
:103FA000F4F041F2883400FB04F300BF181EA3F1C3
:103FB000010302D14FF0004010BD4A6B02F04500F2
:103FC0000028F3D002F400600028EFD1486B00F025
:103FD000040010B104208863EEE7C5208863002048
:103FE000EAE70000000000202DE9F04304460F46F8
:103FF00090462A480068C0084FF47A71B0FBF1F08F
:1040000041F2883100FB01F900BFB9F10000A9F1CC
:10401000010903D14FF00040BDE8F083666B06F064
:1040200045000028F1D006F400600028EDD1606B57
:1040300000F0040010B10420A063EDE7606B00F015
:10404000010010B10120A063E6E72046FFF753FC12
:10405000B84201D00120DFE7C520A063002120463F
:10406000FFF752FC054605F4604020B9280CA8F87B
:1040700000000020D0E705F48040B0F5804F02D169
:104080004FF40050C8E705F40040B0F5004F02D1EE
:104090004FF48050C0E74FF48030BDE700000020AF
:1040A00010B5014618480068C0084FF47A74B0FB98
:1040B000F4F041F2883400FB04F300BF181EA3F1B2
:1040C000010302D14FF0004010BD4A6B02F04500E1
:1040D0000028F3D002F400600028EFD1486B00F014
:1040E000040010B104208863EEE7486B00F0010083
:1040F00010B101208863E7E7486B00F0400008B189
:10410000402088630020DFE7000000202DE9F04315
:1041100089B004460F46FDF7F9F881464FF00008D4
:104120000020019002903E4608212068FFF76EFCB7
:1041300005461DB1284609B0BDE8F0835022125B48
:1041400011042068FFF727FC05460DB12846F2E769
:104150004FF0FF300390082004903020059002209B
:104160000690002007900120089003A92068FFF71F
:10417000ACFB2068FFF739FD05460DB12846DAE7AC
:104180001CE02068406B00F4001040B12068FFF78D
:10419000E4FB01A941F8280008F1010805E02068C6
:1041A000406B00F4005000B90EE0FDF7AFF8A0EB53
:1041B0000900401C10B94FF00040BCE72068406B7C
:1041C00000F02A000028DCD000BF2068406B00F01F
:1041D000080018B1082021688863ACE72068406BAC
:1041E00000F0020018B1022021688863A3E720686C
:1041F000406B00F0200018B12020216888639AE706
:1042000040F23A502168886302980006029901F44E
:104210007F4140EA0120029901F47F0140EA112028
:10422000029940EA11603060361D0198000601993C
:1042300001F47F4140EA0120019901F47F0140EA45
:104240001120019940EA11603060002073E730B519
:104250008FB00446012003902068FFF750FB18B987
:104260004FF080600FB030BD606C03281BD0206819
:10427000FFF789FC05460DB12846F3E700212068C9
:10428000FFF742FB606704212068FFF73DFBA06752
:1042900008212068FFF738FBE0670C212068FFF752
:1042A00033FB80210851606C032807D003A92068E4
:1042B000FFF7D3FC05460DB12846D3E7606C032811
:1042C00020D0BDF80C1021655022125B110420682B
:1042D000FFF772FC05460DB12846C3E700212068B0
:1042E000FFF712FB606604212068FFF70DFBA06654
:1042F00008212068FFF708FBE0660C212068FFF723
:1043000003FB206704212068FFF7FEFA010DE1643A
:1043100004A92046FDF780FE10B14FF08050A1E7C0
:104320005020005B01040A4600232068FFF70EFCC2
:1043300005460DB1284695E7D4E90412A069CDE9F8
:104340000012029094E80F00FFF7E4FA002089E7DA
:10435000F8B5044600200090002600272068FFF7EB
:104360008DFB05460DB12846F8BD2068FFF79CFB84
:10437000054645B10021A1642068FFF77FFB054693
:104380001DB12846F0E70121A164A06C012808D1E5
:1043900000212068FFF7FFFA054615B14FF0805065
:1043A000E2E71DE000212068FFF7F5FA05460DB1B0
:1043B0002846D9E718492068FFF70AFB054615B1DA
:1043C0004FF08050D0E700212068FFF79DFA0646A5
:1043D000012080EAD67080F001070098401C009010
:1043E0004FF6FF710098884201D2002FDAD04FF6C5
:1043F000FF710098884202D34FF08070B4E706F056
:104400008040B0F1804F02D10120606401E00020C3
:1044100060640020A8E70000000010C170B50446E9
:104420000D4615B94FF0006070BD5022125B1104AB
:104430002068FFF7F6FB06460EB13046F4E7002190
:104440002068FFF761FA28600020EDE77CB504469C
:1044500000200090019000212068FFF755FA00F03D
:104460000070B0F1007F02D14FF400607CBD69465E
:104470002046FFF74BFE05460DB12846F6E70198AA
:1044800000F4803098B15022125B11042068FFF7CD
:1044900082FA05460DB12846E8E700212068FFF7BB
:1044A000D1FA05460DB12846E0E70020DEE74FF0DF
:1044B0008060DBE77CB5044600200090019000217D
:1044C0002068FFF721FA00F00070B0F1007F02D100
:1044D0004FF400607CBD69462046FFF717FE054695
:1044E0000DB12846F6E7019800F4802098B15022DB
:1044F000125B11042068FFF74EFA05460DB12846FD
:10450000E8E702212068FFF79DFA05460DB128462D
:10451000E0E70020DEE74FF08060DBE77CB5044693
:104520000D461646164800681821B0FBF1F01549F3
:10453000B0FBF1F04FF47A71484301906068B0F538
:10454000827F0DD12B46002280212046009600F06C
:104550001BF898B1606D40F02000606503207CBDC1
:1045600000BF019800B908E00198401E0190206842
:104570008068C0F3C0100028F3D100BF0020EEE730
:104580000000002040420F002DE9F84F04460D4680
:1045900090461E46DDF82890FCF7B8FEA0EB090017
:1045A000371AFCF7B3FE82462C480068C0F3CB30C4
:1045B0007843009045E0701C002842D0FCF7A6FE2E
:1045C000A0EB0A00B84200D2A7BB2068406820F0E8
:1045D000E000216848606068B0F5827F0DD1A06876
:1045E000B0F5004F03D0A068B0F5806F05D120680A
:1045F000006820F0400021680860A06AB0F5005F04
:104600000DD100BF2068006820F4005021680860C8
:104610002068006840F400502168086000BF012055
:1046200084F8510000BF002084F8500000BF032030
:10463000BDE8F88FFFE7009800B900270098401EFA
:104640000090206880682840A84201D1012000E045
:1046500000204045AFD10020EAE700000000002024
:10466000704710B5FDF738F810BD0000034800682A
:1046700040F47000014908607047000088ED00E0D8
:1046800010B50E480068C06800F0010078B10C4910
:1046900008698047002009490968486200BF642012
:1046A00006490968C86264210448C16000BF6FF010
:1046B000010002490968086110BD000080D0002097
:1046C000C000002010B50268294B98420ED0B0F10E
:1046D000804F0BD0274B984208D0274B984205D0EB
:1046E000264B984202D0264B984203D122F070020A
:1046F0004B681A431E4B984220D0B0F1804F1DD01A
:104700001C4B98421AD01C4B984217D01B4B984216
:1047100014D01B4B984211D01A4B98420ED01A4B12
:1047200098420BD0194B984208D0194B984205D0AB
:10473000184B984202D0184B984203D122F4407291
:10474000CB681A4322F080034C6943EA04020260FA
:104750008B68C3620B688362054B984202D0084B9A
:10476000984201D10B6903630123436110BD00002E
:10477000000001400004004000080040000C004020
:104780000004014000400140004401400048014055
:1047900000180040001C00400020004070B5054695
:1047A000AC6B0020E085E0842046FEF7FFFB70BD87
:1047B0000168C96821F490710268D1600168496993
:1047C00021F0010102685161016B012905D10168E5
:1047D000C96821F010010268D160202180F83E10E4
:1047E00000210163704710B504462068C06820F0BE
:1047F00040002168C860202084F83D002046FEF774
:10480000CFFE002010BD70B5044694F83E0022286B
:1048100056D1A068B0F5805F0CD1206950B9002551
:10482000A66A20684068C0F308003080A06A801C37
:10483000A06215E0A56A0026A068B0F5805F03D0ED
:10484000A06828B9206918B920684068287004E079
:104850002068406800F07F002870A06A401CA062B9
:10486000E08D401E80B2E08540BB2068C06820F02B
:1048700020002168C8602068C06820F4807021682A
:10488000C8602068406920F001002168486120204C
:1048900084F83E00206B01280AD12068C06820F00F
:1048A00010002168C860A18D2046FEF76FFB02E072
:1048B0002046FEF727FE0020206370BD0020FCE7A5
:1048C0000220FAE72DE9F84F04462068006920F439
:1048D0004050E1680843216808612169A0680843E5
:1048E00061690843E169084300902068C06849F2A3
:1048F0000C618843009908432168C86020684069BA
:1049000020F44070A1690843216848617649206815
:10491000884203D075492068884203D1FDF762F8C8
:10492000814602E0FDF74EF88146E069B0F5004FA0
:104930006CD102206168A0FB015003461920A9FB3D
:10494000007001462A463846FBF7C5FC6421B0FBDF
:10495000F1F04FEA001A02206168A0FB01510B46FA
:104960001920A9FB00712A463846FBF7B4FC8346A0
:1049700002206168A0FB015003461920A9FB0071C9
:104980002A463846FBF7A7FC6421B0FBF1F000EBA8
:10499000C00101EB0010ABEB8000322101EBC00045
:1049A0006421B0FBF1F000F0F8000AEB400A0220AD
:1049B0006168A0FB015003461920A9FB0070014665
:1049C0002A463846FBF787FC834602206168A0FB35
:1049D000015003461920A9FB00712A463846FBF70F
:1049E0007AFC6421B0FBF1F000EBC00101EB001098
:1049F000ABEB8000322101EBC0006421B0FBF1F091
:104A000000F007005044216888606AE00420616873
:104A1000A0FB015003461920A9FB007001462A465D
:104A20003846FBF758FC824604206168A0FB015021
:104A300003461920A9FB007001462A463846FBF7B9
:104A40004AFC6421B0FBF1F000EBC00101EB001067
:104A5000AAEB8000322101EB00106421B0FBF1F0E1
:104A600000F0F00A04206168A0FB017003461920E1
:104A7000A9FB00513A462846FBF72DFC6421B0FB08
:104A8000F1F00AEB001A04206168A0FB01510B460B
:104A90001920A9FB00712A463846FBF71CFC834607
:104AA00004206168A0FB015003461920A9FB007097
:104AB00001462A463846FBF70EFC6421B0FBF1F0B4
:104AC00000EBC00101EB0010ABEB8000322101EBE9
:104AD00000106421B0FBF1F000F00F005044216899
:104AE0008860BDE8F88F000000100140001401400C
:104AF00010B5034699629A85DA8500201864222051
:104B000083F83E0000BF002083F83C0000BF186817
:104B1000C06840F480701C68E0601868406940F02C
:104B200001001C6860611868C06840F020001C68C3
:104B3000E060002010BD014691F83D00212828D1F9
:104B40008868B0F5805F0BD1086948B90A6A108897
:104B5000C0F308000B685860086A801C086205E012
:104B60000B6A581C086218780B685860C88C401E85
:104B700080B2C88458B90868C06820F080000B680B
:104B8000D8600868C06840F040000B68D86000201A
:104B900070470220FCE7000010B50248FEF708FA53
:104BA00010BD0000CC03002010B50248FEF700FA4B
:104BB00010BD00008803002000BFFEE70248006827
:104BC000C0F30220704700000CED00E010B5002893
:104BD00004DB0A07130E054A135406E00A07140EF5
:104BE000034A00F00F031B1FD45410BD00E400E083
:104BF00018ED00E030380A2801D20120704700206B
:104C0000704700BF7047000070B5082000F018F929
:104C10000546092000F014F9044644F66771601A4D
:104C20008C421DD00DDCA4F58040A0F5A270A8B187
:104C3000102812D0B0F53F6F11D0B0F5416F24D1DC
:104C40000AE0A0F2E67060B1A0F6FF60B0B1A0F596
:104C500080501938C8B909E000BF00BF00BF00BFCD
:104C600000BF7D20B5FBF0F080B270BD4FF6FF7045
:104C7000854202D140F28350F7E700BF68014FF44C
:104C80007A71B0FBF1F080B2EFE7E41004F00304B6
:104C9000032C01D1012400E00024034800EB441060
:104CA000290B30F81100E0E786D9000810B541F66D
:104CB000056000F0B9F810BD10B50024042000F024
:104CC000BFF80446204610BD00B587B000BF00BF46
:104CD000002001903448006840F004003249086028
:104CE0000846006800F00400019000BF00BF00BF4C
:104CF00000BF00BF002001900846006840F002009D
:104D000008600846006800F00200019000BF00BF84
:104D100000BF00BF00BF002001900846006840F0BF
:104D2000020008600846006800F00200019000BF21
:104D300000BF00BF00BF00BF002001900846006810
:104D400040F0200008600846006800F02000019054
:104D500000BF00BF00BF012002900390049002201A
:104D6000059002A91148FCF7B1F94FF48060029058
:104D700002A90F48FCF7AAF94FF40060029002A9BB
:104D80000B48FCF7A3F9402002900020039001207B
:104D900004900220059002A90648FCF797F904F058
:104DA00039FC002007B000BD303802400008024046
:104DB00000040240001402402DE9F04704468846F2
:104DC00000252DE02846691C8DB234F81070284665
:104DD000691C8DB234F8106006F4004088B1C6F347
:104DE0000E062846691C8DB234F8109003E0F8B224
:104DF000494600F0FDF9301EA6F101018EB20FD038
:104E0000F5E708E02846691C8DB234F81090F8B236
:104E1000494600F0EDF9301EA6F101018EB2F1D144
:104E20004545CFDBBDE8F08770B504462146072035
:104E300000F0DEF9062000F003F80546284670BDB4
:104E400070B50546002400BF40211A48FCF740FA1F
:104E50000028F9D000F0C7F900BF0122D10216489E
:104E6000FCF748FA00BF00BF00224FF480611248EF
:104E7000FCF740FA00BF032000F0AAF9284600F032
:104E8000A7F9FF2000F0A4F904464FF6FF7000EAEE
:104E90000424FF2000F09CF9204484B200BF0122CA
:104EA00091020548FCF726FA00BF00F097F920466A
:104EB00070BD0000001402400004024010B5002440
:104EC00000BF002201211948FCF714FA00BF14208A
:104ED00000F0A4FD00BF0122D1021548FCF70AFA38
:104EE00000BF00BF012291021148FCF703FA00BF86
:104EF00000BF012211460D48FCF7FCF900BF04E099
:104F0000601CC4B2322000F0A3FD40210948FCF728
:104F1000DFF908B9C82CF3DB142000F07FFDC82CA2
:104F200001DB012010BD0020FCE70000000802406A
:104F3000000402400014024010B50021042000F0DB
:104F400057F90021042000F053F910BD70B588B066
:104F5000002604E000200DF80600701CC6B2202ECA
:104F6000F8DB0020FFF76CFF044644F0080444F02F
:104F700004042146002000F03BF900250EE06846BD
:104F800000F040F850B905F1200085B20020FFF78D
:104F900057FF044604F0080000B902E0B5F5006FC1
:104FA000EDDB00BFB5F5006F19DA05F053FFC4B2B1
:104FB000002604E0E0B20DF80600701CC6B2202EF8
:104FC000F8DB002506E0684600F01CF810B905F192
:104FD000200085B240F604008542F4DB01E000F0D9
:104FE000B3F80820FFF72CFF04460920FFF728FF3D
:104FF000204484B21CB1FFF761FF00F0A5F808B0AF
:1050000070BD000070B5054640211048FCF760F9FE
:10501000B8B100BF00224FF400610D48FCF76AF9F7
:1050200000BF002404E0285D00F0D2F8601CC4B288
:10503000202CF8DB00BF0122D1020548FCF75AF909
:1050400001E0012070BD0020FCE7000000140240D8
:105050000004024010B50A49087800F062F8084CD4
:105060002379E278A178607800F032F82146487917
:1050700000F008F82146887900F01DF810BD000006
:105080001A00002070B505460020FFF7D9FE04463F
:1050900024F0100424F0800405F0010008B144F06D
:1050A000100405F0020008B144F0800421460020FD
:1050B00000F09EF870BD10B5044610214CF21700A8
:1050C00000F0CCF821014CF2190000F0C7F810BD37
:1050D0002DE9F04706460F4690461D460024A5F1EF
:1050E00008004FFA80F909F00F044FF6FF7000EA4C
:1050F000041408F00F0004444FF6FF7000EA041493
:1051000007F00F0004444FF6FF7000EA041406F0A5
:105110000F00204484B22146022000F069F8BDE867
:10512000F08770B505460024C5F1FE0084B24FF645
:10513000FF7000EA0424C5F1FE00204484B2214639
:105140000B2000F055F870BD10B5002400BF4021C1
:105150001E48FCF7BDF80028F9D0FF2000F038F811
:1051600000240DE040F60401002000F041F8022088
:1051700000F054FC2046611CCCB2642800DD05E040
:105180000020FFF75DFEB0F5006FEBD100BF00BF60
:1051900040210E48FCF79CF80028F9D000240AE0D2
:1051A0004FF41841032000F023F82046611CCCB2D4
:1051B000642800DD05E00320FFF742FEB0F5184F3C
:1051C000EED100BF142000F029FC10BD00140240F5
:1051D00010B50446204604F05DFA10BD10B502205B
:1051E00004F068FA10BD10B5042004F063FA10BD95
:1051F00070B505460C4600BF40211648FCF768F81C
:105200000028F9D0FFF7EFFF00BF0122D1021248BA
:10521000FCF770F800BF00BF00224FF480610E4819
:10522000FCF768F800BF0220FFF7D2FF2846FFF71F
:10523000CFFF2012FFF7CCFFE0B2FFF7C9FF00BF9E
:10524000012291020448FCF755F800BFFFF7C6FFA2
:1052500070BD0000001402400004024070B5044616
:105260000D4621460720FFF7C3FF00BF4021054838
:10527000FCF72EF80028F9D029460620FFF7B8FFE2
:1052800070BD0000001402402DE9F04704460D46B1
:1052900090469946AD1E606B00EB153AC5F3C80603
:1052A00005F0070101208840C7B200BF51460AF14E
:1052B000010A204602F008FF10B10120BDE8F08786
:1052C00000BF00BF04F13C00805D384008B1012000
:1052D00000E00020484501D10220EFE704F13C0046
:1052E000805D784004F13C0188550120E070A8F110
:1052F0000100B0F1000800D1E0E77806000E071EBB
:10530000E0D10127701C0646B0F5007FD9D30026F6
:10531000CCE7000070B504460D460020E070401E4A
:10532000A0632946204602F0CFFE08B1042070BDDC
:1053300004F23A2002F0AAFA4AF65521884201D036
:105340000320F4E70B2214A104F13C0002F02AFC34
:1053500008B90120EBE794F83C00E92807D094F85D
:105360003C00EB2803D094F83C00E82811D103223C
:105370000CA104F1720002F015FC08B90020D6E778
:10538000052209A104F18E0002F00CFC08B90020EE
:10539000CDE70220CBE70000EB769045584641541C
:1053A0002020200046415400464154333200000082
:1053B000024600E0521C107810B110788842F9D1F2
:1053C000107870472DE9F84F824615461E46DAF8E8
:1053D00000000090DAF8500000F104094FF4007268
:1053E000002328463146FAF776FF07460098B0F8C2
:1053F0000AC0624600233846FAF76DFF834600BFB5
:1054000059F8044B14B90020BDE8F88FA34500D229
:1054100004E0ABEB040B09F10409F1E700BFD9F894
:1054200000005844F0E70246891ED069801E884279
:1054300001D8002070475389106B03FB0100F9E786
:105440002DE9F04780460C4604F11A0002F01EFADE
:1054500010B10020BDE8F087207800F03F00401E2A
:1054600000EB800101EBC0054FF00109002621E0AF
:105470001849895D081902F009FA0746B9F1000FC9
:1054800011D0FF2D0BD8384601F0BCFC82462946CE
:105490006D1C38F8110001F0B5FC824501D00020E8
:1054A000D8E7B94605E04FF6FF70874201D00020EB
:1054B000D0E7761C0D2EDBD3207800F0400038B109
:1054C000B9F1000F04D038F8150008B10020C1E789
:1054D0000120BFE73CDD00082DE9F04706468A467B
:1054E0003468BAF1000F0AD1D4F81480B8F1000F73
:1054F00002D0E069404516D84FF0010813E051464C
:10550000304601F079FE0746022F02D20120BDE8A5
:10551000F087781C08B93846F9E7E069B84201D944
:105520003846F4E7D046A06908B90020EFE72078B4
:1055300004284ED101224146204601F0F8FC0546E0
:105540000DB1681C08B92846E1E701231A4629462F
:105550002046FFF799FE8146B9F1020F01D10120E3
:10556000D5E7B9F1010F02D14FF0FF30CFE7BAF123
:10557000000F02D10220F0710CE0F079022809D16D
:1055800008F10100854205D0B068A8EB0000B061C9
:105590000320F071F079022869D00AF101008542F8
:1055A00007D1F06910B1F069401C00E00220F06101
:1055B0005DE0F06908B90120F0612A4651463046A5
:1055C00001F093FC8146B9F1000F50D10120F06148
:1055D0004DE00025D04519D108F10105E069A84248
:1055E00000D802252946304601F006FE0746012F65
:1055F00001D0781C08B9384689E73FB16769022FA6
:1056000003D3E069B84200D9B8460025E5B945465C
:1056100000BF6D1CE069A84204D80225454501D9A8
:10562000002074E72946304601F0E6FD074607B939
:1056300009E0012F01D0781C08B9384667E74545D5
:10564000E7D1002063E700BF4FF0FF322946204634
:1056500003F0BCFD8146B9F1000F08D1BAF1000F8B
:1056600005D02A465146204603F0B0FD8146B9F1E7
:10567000000F0DD16561D4E90610801E814202D869
:10568000A069401EA061207940F00100207107E070
:10569000B9F1010F02D14FF0FF3000E001200546C3
:1056A000284634E72DE9F34F85B081460698006817
:1056B0000290D9F80000D0F80CA0002500BF02A885
:1056C00004F084FA83460BF1010018B9062007B0F4
:1056D000BDE8F08FBBF5803F05D34FEA1B4228465B
:1056E0006D1C2AF810201FFA8BF4202C03DB2F2CC2
:1056F00001D05C2C00D111E0802C06DA214679A083
:10570000FFF756FE08B10620E1E7FF2D01D3062082
:10571000DDE728466D1C2AF81040D0E700BF202C9A
:1057200001DA04260CE0002602E00298401C0290F8
:10573000029800782F28F8D0029800785C28F4D0DE
:1057400002990698016008E0681E3AF81040202C83
:1057500002D02E2C00D002E06D1E002DF4D100BF2F
:1057600000202AF815000DB90620B0E7002700E058
:105770007F1C3AF817002028FAD01FB93AF8170012
:105780002E2801D146F0030600E06D1E25B1681EEB
:105790003AF810002E28F8D10B22202109F1400000
:1057A00002F01FFA4FF00008CDF810800820039097
:1057B00000BF38467F1C3AF8104004B966E0202C40
:1057C00003D02E2C04D1AF4202D046F00306F0E7FE
:1057D000DDE90310884201D2AF4216D103980B28AD
:1057E00002D146F0030651E0AF4201D046F0030675
:1057F000AF4200D94AE02F46082004900B200390C6
:105800004FEA88604FEA1068D3E7802C0ADB46F045
:105810000206204601F0F6FA4FF46A71019001F099
:10582000E9FA0446FF2C11DD0398401E04998842D2
:1058300004D846F0030603980490BAE722120498AD
:10584000411C049109F140010A5418E024B1214699
:1058500027A0FFF7ADFD18B15F2446F003060EE068
:10586000412C03DB5A2C01DC48F00208612C06DBDA
:105870007A2C04DC48F00108A4F1200084B20498DA
:10588000411C049109F140010C5492E700BF99F8C2
:105890004000E52802D1052089F840000398082837
:1058A00003D14FEA88604FEA106808F00C000C281A
:1058B00003D008F00300032801D146F0020606F0E9
:1058C000020048B908F0010008B146F0100608F0DF
:1058D000040008B146F008064B2000F809600020DB
:1058E000F5E60000222A3A3C3E3F7C7F00000000A3
:1058F0002B2C3B3D5B5D00002DE9F04704460E4636
:1059000040220021204602F06CF985202070C02042
:1059100084F8200040250020804607464FF001090A
:1059200000BFC12228466D1C2254002228466D1C4F
:10593000225400BFB9F1000F06D036F81700B0F1BD
:10594000000901D0781CC7B26019494604F01AF862
:10595000AD1C05F01F000028ECD108F1010000F09B
:10596000FF0836F817000028DBD184F8237008F10F
:1059700001006070304605F092FA8246514604F10B
:10598000240003F0FFFFBDE8F087000001460B484C
:10599000007888420FDC09484078884201DB01200A
:1059A000704706488078884205DC0448C078884201
:1059B00001DB0120F4E70020F2E7000049DD0008E8
:1059C000014610480079884219DC0E484079884227
:1059D00001DB012070470B488079884205DC0948CB
:1059E000C079884201DB0120F4E70648007A88424A
:1059F00005DC0448407A884201DB0120EAE7002008
:105A0000E8E7000049DD000810B504460420FDF772
:105A100007FA0148046010BD0400002070B5044678
:105A20001E2094FBF0F594FBF0F100FB114604E01E
:105A300047F2305000F00CF86D1E002DF8D12EB159
:105A40004FF47A7106FB01F000F002F870BD00001F
:105A500070B5034600224FF0E02675690D4E36689A
:105A600003FB06F44FF0E026B16910E04FF0E026AA
:105A7000B06988420BD0884202D20E1A324402E04A
:105A80002E1A0E4432440146A24200D300E0EDE754
:105A900000BF70BD040000202DE9F04104460E4611
:105AA000D4F800800021204600F06EFB05465DBB67
:105AB000002700BF4046A16B02F006FB054605B17A
:105AC00021E098F80000042805D1E06B007801215E
:105AD00021EAD01009E0E06B0078E52802D0E06B05
