:020000040800F2
:10000000880E0020890200085F2900085726000892
:100010005B29000821090008B13A0008000000002F
:10002000000000000000000000000000693500082A
:100030002509000800000000612900086B35000850
:10004000AD020008AD020008AD020008AD020008D4
:10005000AD020008AD020008AD020008AD020008C4
:10006000AD020008AD020008AD020008AD020008B4
:10007000AD020008AD020008AD020008AD020008A4
:10008000AD020008AD020008AD020008AD02000894
:10009000AD020008AD020008AD020008AD02000884
:1000A000AD020008AD020008AD020008AD02000874
:1000B000AD020008AD02000889350008AD02000855
:1000C000AD020008AD020008AD020008AD02000854
:1000D000AD020008AD020008A13A0008AD02000818
:1000E000AD020008AD020008AD020008AD02000834
:1000F000AD020008AD020008AD020008AD02000824
:10010000AD020008AD020008AD020008AD02000813
:10011000AD020008AD020008AD020008AD02000803
:10012000AD020008AD020008AD020008AD020008F3
:10013000AD020008AD020008AD020008AD020008E3
:10014000AD020008AD020008AD020008AD020008D3
:10015000AD020008AD020008AD020008AD020008C3
:10016000AD020008AD020008AD020008AD020008B3
:10017000AD020008AD020008AD020008000000005A
:10018000AD020008AD02000800F002F800F06DF8C2
:100190000AA090E8000C82448344AAF10107DA45E2
:1001A00001D100F062F8AFF2090EBAE80F0013F0C7
:1001B000010F18BFFB1A43F00103184748660000FF
:1001C000686600000A444FF0000C10F8013B13F081
:1001D000070408BF10F8014B1D1108BF10F8015BA0
:1001E000641E05D010F8016B641E01F8016BF9D193
:1001F00013F0080F1EBF10F8014BAD1C0C1B09D1EA
:100200006D1E58BF01F801CBFAD505E014F8016B5B
:1002100001F8016B6D1EF9D59142D6D370470000ED
:100220000023002400250026103A28BF78C1FBD8FF
:10023000520728BF30C148BF0B607047642900F0E7
:100240001D81752900F01A81782900F053816329F6
:1002500000F0AF82732900F0B482002070471FB510
:1002600006F0A2F91FBD10B510BD00F026FB114627
:10027000FFF7F5FF04F098FA00F044FB03B4FFF732
:10028000F2FF03BC03F039FC0C48016841F4700133
:1002900001600B4880470B480047FEE7FEE7FEE79A
:1002A000FEE7FEE7FEE7FEE7FEE7FEE7FEE700000B
:1002B00005480649044A064B7047000088ED00E0F7
:1002C0007535000889010008880A0020880E002082
:1002D000880A0020704753EA020C00F069802DE97B
:1002E000F04B4FF00006002B1FBFB3FA83F503FA63
:1002F00005F424FA05F65E4012BF1643B2FA82F501
:1003000002FA05F4C5F120051EBF22FA05FC44EAF5
:100310000C04203556EA044C4FEA144418BF641C00
:100320004FF000084FF00009904271EB030C39D3F5
:10033000002919BFB1FA81F701FA07F6B0FA80F780
:1003400000FA07F6C7F120071EBF20FA07FC46EAAD
:100350000C062037B6FBF4FCA7EB0507103F07F0AF
:100360001F0BCBF120060CFA0BFB2CFA06F644BF50
:10037000B3460026202FA4BF5E464FF0000B5BEA79
:10038000060C08BF4FF0010B19EB0B09ABFB027C0D
:1003900048EB0608C01B06FB02CC0BFB03CC71EB41
:1003A0000C01C1E70B46024641464846BDE8F08BCA
:1003B00013B54FF000004FF00001AFF30080BDE82F
:1003C0001C4070470FB4044910B503AA029800F00E
:1003D000FDF910BC5DF814FB0C00002070B504465C
:1003E00085690068C10601D5302600E02026C007D7
:1003F00007D070BDD4E9012130469047206A401CE7
:1004000020626D1EF6D570BD70B504468569007812
:10041000C00707D170BDD4E9012120209047206A90
:10042000401C20626D1EF6D570BD70B50C460546A9
:10043000012A05D02878800600D5EA69002302E069
:10044000012305E05B1C934202D2E05C0028F9D155
:10045000A869E618C01AA861286A184428622846C4
:10046000FFF7BCFF04E0D5E9012114F8010B904728
:10047000B442F8D32846FFF7C7FF70BD2DE9F0411D
:100480000646002410687529314616A510D0AFF332
:100490000080002802DA404213A507E031688A078D
:1004A00001D512A502E0490704D511A5012401E0F8
:1004B000AFF3008000210A2206F1240709E0B0FB17
:1004C000F2FCB0FBF2F302FB1C003030785418460B
:1004D000491C0028F3D123462A463046BDE8F041A6
:1004E00000F004B9000000002D0000002B00000007
:1004F0002000000070B504460D4621461068AFF399
:1005000000802188090502D50F4A7A4402E00E4A8C
:100510007A440E32002104F1240305E000F00F06B6
:100520000009965D5E54491C0028F7D1207800230D
:10053000000704D5702D02D009B1022311322046E4
:10054000BDE8704000F0D2B8FC6000002DE9F05F1B
:10055000894604464FF0000ADFF874B1FB44C0F846
:1005600020A02046E1688847002874D0252806D0BE
:10057000D4E901219047206A401C2062F1E700265F
:100580005F462046E16888472028054607DB312D75
:1005900005D2781910F8200C08B10643F1E7B0072E
:1005A00001D526F00406C4F81CA00027C4F818A042
:1005B0002A2D09D0284603F099FA38B304EB8708AE
:1005C000303DC8F8185019E059F8041B204604EBD8
:1005D00087029161E1688847012F054618D1E069DB
:1005E000002820DA26F020061DE0D8F8180000EBDD
:1005F000800005EB40003038C8F818002046E1685C
:100600008847054603F072FA0028EED1012F0AD080
:100610002E2D08D12046E16888477F1C0546022F11
:1006200046F02006C4DBA069002803DA404246F009
:100630000106A061F00701D026F010066C2D0BD04A
:10064000682D09D04C2D39D06A2D35D0742D35D078
:100650007A2D33D016E038E0E1682F4620468847EF
:10066000B842054609D16C2F26D04FF48060E1686E
:10067000064320468847054604E06C2F1AD04FF405
:10068000807006430DB3A5F14100192802D820352A
:1006900046F400664A462946204626604E46FFF745
:1006A000CDFD80B101280BD0F61D26F0070000F12A
:1006B000080956E74020E4E78020D8E70020D6E785
:1006C00006F104094DE7284652E7206ABDE8F09F8D
:1006D000D260000002F0FF0343EA032242EA024232
:1006E00000F088B870477047704770472DE9F047B1
:1006F0000D4699469246044600F124080168880692
:1007000004D5E06921F01001216000E00120A84239
:1007100001DD471B00E00027A1697A1902EB0900FF
:10072000081AA0612078C00602D42046FFF756FEC2
:10073000002608E0D4E901211AF806009047206A53
:10074000401C761C20624E45F4DB2078C0060AD59A
:100750002046FFF743FE06E0D4E901213020904710
:10076000206A401C2062381EA7F10107F4DC07E074
:10077000D4E9012118F805009047206A401C206246
:10078000281EA5F10105F3DC2046FFF73DFE207889
:10079000000602D50220BDE8F0870120FBE710B576
:1007A000436913B1AFF3008001E0FFF73EFE012083
:1007B00010BD127800F124010A7000224A70012253
:1007C000EDE711684FF0FF32E9E70000074B70B525
:1007D0000D467B4400F033F80446284600F042F80A
:1007E00010B14FF0FF3070BD204670BD8F38000053
:1007F0004FF000020429C0F0128010F0030C00F04A
:100800003780CCF1040CBCF1020F18BF00F8012BAB
:10081000A8BF20F8022BA1EB0C0100F029B85FEA79
:10082000C17C24BF00F8012B00F8012B48BF00F861
:10083000012B704701694A1C02610878704700B5B6
:100840008FB0CDE901310021059105497944CDE909
:10085000031011466846FFF779FE0FB000BD000097
:10086000E5FFFFFF007B00F0800070474FF00002C3
:1008700000B5134694469646203922BFA0E80C5096
:10088000A0E80C50B1F12001BFF4F7AF090728BF71
:10089000A0E80C5048BF0CC05DF804EB890028BFED
:1008A00040F8042B08BF704748BF20F8022B11F016
:1008B000804F18BF00F8012B7047754600F02CF8E8
:1008C000AE4605006946534620F00700854618B03D
:1008D00020B5FFF7EDFCBDE820404FF000064FF0DB
:1008E00000074FF000084FF0000B21F00701AC4665
:1008F000ACE8C009ACE8C009ACE8C009ACE8C00984
:100900008D46704710B50446AFF300802046BDE821
:100910001040FFF7B3BC000000487047240A0020D5
:1009200000BFFEE7704770B50446A56D00F08AF978
:10093000064694F83500022808D08020606500BF84
:10094000002084F8340000BF012070BD20680068DA
:1009500020F01600216808602068406920F08000BF
:1009600021684861206C08B9A06C28B12068006833
:1009700020F00800216808602068006820F001006D
:10098000216808600FE000F05DF9801B05280AD996
:100990002020606500BF002084F8340000BF0320E1
:1009A00084F83500D1E72068006800F001000028D5
:1009B000E9D194F85C103F208840A86000BF002077
:1009C00084F8340000BF012084F835000020BCE723
:1009D000014691F83500022803D0802048650120A7
:1009E0007047052081F835000868006820F0010094
:1009F0000A6810600020F3E710B50446A0B203F0C7
:100A000073FA10BDF8B502460B46002500240020FD
:100A10000021DEE0012606FA01F51E6806EA05045B
:100A2000AC4275D11E7906F00306012E04D01E7962
:100A300006F00306022E13D190684F000326BE4035
:100A4000B0434F00DE68BE403043906050680126DE
:100A50008E40B0431E79C6F300168E40304350607E
:100A60001E7906F00306032E09D0D0684F00032636
:100A7000BE40B0434F009E68BE403043D0601E79F8
:100A800006F00306022E13D1CF0802F1200656F815
:100A900027004E07F70E0F26BE40B0434F07FF0E4C
:100AA0001E69BE403043CF0802F1200646F82700F9
:100AB00010684F000326BE40B0431E7906F00306BF
:100AC0004F00BE40304310605E6806F08056B6F1BD
:100AD000805F7DD100BF00260096404E366846F408
:100AE00080463E4F3E603E46366806F4804600969D
:100AF00000BF00BF3A4E8F0856F827008E07370F09
:100B00000F26BE40B043374EB24202D1002624E049
:100B10005EE0354EB24201D101261EE0334EB242B4
:100B200001D1022619E0324EB24201D1032614E06F
:100B3000304EB24201D104260FE02F4EB24201D115
:100B400005260AE02D4EB24201D1062605E02C4EC4
:100B5000B24201D1072600E008268F073F0FBE40B2
:100B600030431F4E8F0846F82700264E3068A043BA
:100B70005E6806F48036B6F5803F00D12043214EF2
:100B80003060361D3068A0435E6806F40036B6F566
:100B9000003F00D120431B4E361D3060361D3068AB
:100BA000A0435E6806F48016B6F5801F00D120438E
:100BB000144E08363060361D3068A0435E6806F477
:100BC0000016B6F5001F00D120430E4E0C363060E3
:100BD000491C1029FFF41EAFF8BD00004438024044
:100BE00008380140000002400004024000080240B2
:100BF000000C0240001002400014024000180240A5
:100C0000001C0240003C0140024613690B400BB13E
:100C1000012000E00020704710B5426921EA02037C
:100C200002EA010443EA0443836110BD0AB1816111
:100C300001E00B048361704701480068000C7047B5
:100C4000002004E001480068704700001400002004
:100C500070B504460CB9012070BD94F83D0028B968
:100C6000002084F83C00204600F092F9242084F80B
:100C70003D002068006820F00100216808602068BD
:100C8000006840F40040216808602068006820F493
:100C900000402168086000F031FB05465C4960684F
:100CA000884206D85B48854201D2012007E0002037
:100CB00005E05948854201D2012000E000200128CA
:100CC00000D1C9E75548B5FBF0F62068406820F030
:100CD0003F003043216848604D496068884201D830
:100CE000701C07E04FF4967070434FF47A71B0FBBC
:100CF000F1F0401C2168096A21F03F010843216896
:100D0000086243496068884214D8681E61684900D7
:100D1000B0FBF1F0401CC0F30B00042801D204200A
:100D20003DE0681E61684900B0FBF1F0401CC0F373
:100D30000B0034E0A06838B9681E616801EB41011E
:100D4000B0FBF1F0401C0AE0681E616801EBC102D3
:100D500002EB0111B0FBF1F0401C40F48040C0F305
:100D60000B0008B901201AE0A06848B9681E616844
:100D700001EB4101B0FBF1F0401CC0F30B000CE0B3
:100D8000681E616801EBC10202EB0111B0FBF1F0DA
:100D9000401CC0F30B0040F4804040F40040216848
:100DA000C9694CF6FF72914308432168C861D4E9D0
:100DB000070108432168096821F0C0010843216840
:100DC0000860D4E9031008432168896848F2FF32BB
:100DD0009143084321688860D4E9050108432168EC
:100DE000C96821F0FF0108432168C86020680068D5
:100DF00040F001002168086000202064202084F871
:100E00003D000020206384F83E0000BF24E700007E
:100E1000A086010080841E0000093D0040420F00B2
:100E20002DE9F8430446894616461F46DDF8208022
:100E3000FFF708FF054694F83D0020287ED11923CE
:100E4000012251492046009501F0B4FC10B1022066
:100E5000BDE8F88300BF94F83C00012801D10220CE
:100E6000F6E7012084F83C0000BF2068006800F02D
:100E7000010028B92068006840F00100216808607E
:100E80002068006820F4006021680860212084F850
:100E90003D00102084F83E000020206466626785D3
:100EA000608D20853948E0622B46424649462046FF
:100EB00001F0F2FB08B10120CAE700BF002000905A
:100EC00020684069009020688069009000BF00BFE2
:100ED00044E02A464146204601F011FD50B1206C05
:100EE000042805D12068006840F40070216808607B
:100EF0000120ADE7606A007821680861606A401CE3
:100F00006062608D401E6085208D401E20852068B7
:100F10004069C0F3800070B1208D60B1606A0078D4
:100F200021680861606A401C6062608D401E6085B7
:100F3000208D401E20852A46414600E022E02046C2
:100F400001F00AFC50B1206C042805D1206800682B
:100F500040F4007021680860012079E7208D0028A6
:100F6000B7D12068006840F4007021680860202034
:100F700084F83D00002084F83E0000BF84F83C0067
:100F800000BF65E7022063E7020010000000FFFFDA
:100F900010B586B004461B49206888422FD100BF97
:100FA000002000901848006840F4001016490860BE
:100FB0000846006800F40010009000BF00BF00BFAA
:100FC0000020009010481038006840F002000E49E0
:100FD000103908600846006800F00200009000BF69
:100FE00000BFC02001901220029001200390032036
:100FF00004900420059001A90448FFF703FD06B002
:1010000010BD00000054004040380240000402407F
:10101000034800680349097808440149086070479B
:10102000140000201C00002010B50A48006840F49D
:101030000070084908600846006840F48060086055
:10104000032000F07FF80F2000F006F800F02AF8E7
:10105000002010BD003C024070B504460E480078E8
:101060004FF47A71B1FBF0F00C490968B1FBF0F56F
:10107000284601F014F808B1012070BD102C07D2E9
:1010800000222146501E00F01EF80548046001E0D1
:101090000120F2E70020F0E71C0000200000002003
:1010A00018000020704701460846002809DB00F0C0
:1010B0001F0301229A4043099B0003F1E023C3F878
:1010C000002100BF70472DE9F05F80460D461646AF
:1010D000002702F0EFFC074639462A46334601F066
:1010E0000700C0F1070ABAF1040F02D94FF0040A51
:1010F00001E0C0F1070AD14600F1040ABAF1070F76
:1011000002D24FF0000A01E0A0F1030AD4464FF0EA
:10111000010A0AFA09FAAAF1010A0AEA020A0AFA13
:101120000CFA4FF0010B0BFA0CFBABF1010B0BEAC5
:10113000030B4AEA0B042146404602F0C3FCBDE81B
:10114000F09F000000BF00F00702064B19684FF641
:10115000FF031940044B0B4343EA0221014B196082
:1011600000BF70470CED00E00000FA0570B50446C2
:101170000D460CB9012070BD5848006800F007000A
:10118000A84209D255490D700846006800F00700D2
:10119000A84201D00120EEE7207800F002000228EA
:1011A0001DD1207800F00400042805D14C480068C7
:1011B00040F4E0504A490860207800F00800082810
:1011C00005D14748006840F46040454908604448FC
:1011D000006820F0F000A1680843414908602078C9
:1011E00000F00100A8B36068012807D13C48083826
:1011F0000068C0F34040B8B90120BCE7606802282D
:1012000002D06068032807D1354808380068C0F369
:10121000406048B90120AEE7314808380068C0F3A3
:10122000400008B90120A6E72D48006820F003001F
:10123000616808432A490860FFF704FD064609E093
:10124000FFF700FD801B41F28831884202D903205C
:1012500091E707E02248006800F00C006168B0EBFD
:10126000810FEDD11D48006800F00700A84209D9A0
:101270001A490D700846006800F00700A84201D026
:10128000012078E7207800F00400042807D11448F2
:10129000006820F4E050E1680843114908602078B4
:1012A00000F00800082808D10D48006820F46040CC
:1012B000216940EAC1000A49086000F03FF8084986
:1012C0000968C1F30311074A515CC8400649086028
:1012D00006480068FFF7C0FE00204CE7003C0240D3
:1012E00008380240B2650008000000201800002005
:1012F00001480068704700000000002000B5FFF7BB
:10130000F7FF04490968C1F38221034A515CC840D0
:1013100000BD000008380240C265000800B5FFF7B4
:10132000E7FF04490968C1F34231034A515CC840F0
:1013300000BD000008380240C26500082DE9F047F2
:10134000002400250026A1462548006800F00C0076
:1013500020B1042805D008283AD105E0DFF88490B0
:1013600039E0DFF8849036E01D48001F006800F087
:101370003F041B48001F006800F4800078B11A4841
:101380001749091F0968C1F38811A0FB01700146C4
:10139000224600233846FEF79EFF05460EE0114820
:1013A0000F49091F0968C1F38811A0FB01700146AC
:1013B000224600233846FEF78EFF05460848001FE8
:1013C0000068C0F30140401C4600B5FBF6F902E09E
:1013D000DFF8109000BF00BF4846BDE8F08700006E
:1013E000083802400024F40000127A00F8B50446E0
:1013F0000CB90120F8BD207800F00100002874D05D
:10140000F948006800F00C0004280DD0F648006888
:1014100000F00C00082813D1F348001F006800F406
:101420008000B0F5800F0BD1EF4808380068C0F39A
:101430004040002859D06068002856D10120D9E7E3
:1014400000BF6068B0F5803F08D1E7480838006801
:1014500040F48030E449083908601EE06068B0F567
:10146000A02F0DD1E0480838006840F48020DE4904
:10147000083908600846006840F4803008600CE0D5
:10148000D9480838006820F48030D7490839086006
:101490000846006820F48020086000BF606890B1B2
:1014A000FFF7D0FB054606E0FFF7CCFB401B6428A6
:1014B00001D903209EE7CC4808380068C0F34040BB
:1014C0000028F1D011E0FFF7BDFB054606E0FFF76D
:1014D000B9FB401B642801D903208BE7C2480838B8
:1014E0000068C0F340400028F1D1207800F00200ED
:1014F00002285FD1BC48006800F00C0058B1BA481F
:10150000006800F00C0008281CD1B748001F0068D4
:1015100000F48000B0B9B44808380068C0F3400057
:1015200020B1E068012801D0012063E7AE48083807
:10153000006820F0F800216940EAC100AA49083992
:10154000086037E0E06800B30120A8490860FFF7B1
:1015500079FB054606E0FFF775FB401B022801D921
:10156000032047E7A04808380068C0F3400000287F
:10157000F1D09D480838006820F0F800216940EA61
:10158000C10099490839086014E0002097490860B3
:10159000FFF758FB054606E0FFF754FB401B022807
:1015A00001D9032026E7904808380068C0F34000BE
:1015B0000028F1D1207800F0080008282CD16069BB
:1015C000A8B101208A490860FFF73CFB054606E008
:1015D000FFF738FB401B022801D903200AE78248A5
:1015E0006C300068C0F340000028F1D014E0002007
:1015F0007F490860FFF726FB054606E0FFF722FB60
:10160000401B022801D90320F4E677486C300068BB
:10161000C0F340000028F1D1207800F00400042835
:1016200070D1002770483830006800F0805090B9C1
:1016300000BF002000906C483830006840F08050B7
:101640006949383108600846006800F08050009011
:1016500000BF00BF01276748006800F48070B0B980
:101660006448006840F4807062490860FFF7EAFA55
:10167000054606E0FFF7E6FA401B022801D90320E1
:10168000B8E65C48006800F480700028F2D000BF23
:10169000A068012808D154486830006840F0010073
:1016A0005149683108601DE0A06805280DD14E48F9
:1016B0006830006840F004004B4968310860084613
:1016C000006840F0010008600CE04748683000689E
:1016D00020F001004449683108600846006820F0A5
:1016E0000400086000BFA068A8B1FFF7ABFA054688
:1016F00009E0FFF7A7FA401B41F28831884202D97E
:10170000032077E626E0384868300068C0F34000E0
:101710000028EED013E0FFF795FA054608E0FFF742
:1017200091FA401B41F28831884201D9032061E6D9
:101730002D4868300068C0F340000028EFD1012F29
:1017400007D129483830006820F0805026493831C8
:10175000086000BFA069002845D02348006800F059
:101760000C0008285DD0A069022845D100201F493F
:101770000866FFF767FA054606E0FFF763FA401BC5
:10178000022801D9032035E6174808380068C0F35D
:1017900040600028F1D1D4E907010843616A40EABA
:1017A00081110122A06AC2EB500041EA00412C20C5
:1017B000005D41EA00600C49091F086001200B49E7
:1017C0000866FFF73FFA054606E0FFF73BFA401BC5
:1017D000022801D903200DE6034808380068C0F349
:1017E00040600028F1D049E008380240000047423C
:1017F000800E474200700040002021490866FFF734
:1018000021FA054606E0FFF71DFA401B022801D920
:101810000320EFE51B480068C0F340600028F2D1C8
:101820002CE0A069012800D1E4E51648001D0668F7
:10183000A069012820D006F48001E06981421BD113
:1018400006F03F01206A814216D147F6C070304051
:10185000616AB0EB811F0FD106F440310122A06A0A
:10186000C2EB5000B1EB004F06D106F070612C20A6
:10187000005DB1EB006F01D00120BBE50020B9E5B0
:101880000000474200380240F0B589B004460E46D9
:101890000027032084F83400606C032820D0B6F5BC
:1018A000805F04D1A06B40F08050A0631CE0B6F5CF
:1018B000006F07D1204601F081FD0546A06B28434B
:1018C000A06311E03EB9204601F044FD0546A06B3F
:1018D0002843A06308E0A06B40F00060A06303E031
:1018E000A06B40F08050A063A06B38B1174821680E
:1018F0008863012084F83400012713E060680390B6
:10190000A0680490E0680590069660690790A06959
:10191000089006A807C88DE80700206803A90EC92B
:1019200001F044F84FF40071206801F0B5F8054665
:1019300035B1064821688863A06B2843A06301275E
:10194000012084F83400384609B0F0BDFF0540009E
:1019500010B50246506E800F0870506EC0F3836061
:101960004870506EC0F301608870506E000CC870F3
:10197000B2F86400000A087192F864004871906E31
:10198000000DC880906EC0F3034008726820805A32
:10199000C0F3C03048726820805AC0F3803088722B
:1019A0006820805AC0F34030C8726820805AC0F363
:1019B0000030087300204873506C002836D168202E
:1019C000805A8005030DD06E43EA90700861D06E96
:1019D000C0F3C2600875D06EC0F302604875D06E67
:1019E000C0F342508875D06EC0F38240C875D06E87
:1019F000C0F3C23008760869401C50650B7E506DFC
:101A000003F007039B1C01249C4060435065087A47
:101A100000F00F03012098409065D2E915035B0A9E
:101A20005843D0654FF40073136621E0506C0128D1
:101A300013D16820805C8006830AD06E43EA104090
:101A400008610869401C83025365536DD3654FF4E8
:101A500000739365936D13660AE02E4813689863CC
:101A6000906B40F080509063012082F8340010BDEC
:101A70006C20805AC0F3803001F8190F6C20805A16
:101A8000C0F3C61048706C20805C00F07F00887046
:101A9000106FC00FC870106FC0F341700871106FE5
:101AA000C0F382604871106FC0F383508871106F6B
:101AB000C0F34050C87100200872106FC0F300409E
:101AC00048727020805AC0F3C03088727020805AEB
:101AD000C0F38030C8727020805AC0F34030087361
:101AE0007020805AC0F3003048737020805AC0F3D1
:101AF000812088737020805AC0F30120C873702041
:101B0000805CC0F346000874012048741939002035
:101B1000ADE70000FF0540000246506C0860906C85
:101B20004860D06C8860106DC860506D0861906D21
:101B30004861D06D8861106EC8610020704710B593
:101B400004460CB9012010BD94F8340020B90020DF
:101B50002077204600F068F8032084F834002046FF
:101B600000F00CF808B10120EDE70020A06320632D
:101B7000012084F834000020E5E7000070B58AB049
:101B80000446002004900590069007900890762067
:101B9000099007A807C88DE80700206804A90EC9A6
:101BA00000F004FF064616B101200AB070BD002007
:101BB0001B490860206800F013FF01201849A03974
:101BC000C1F8A000204601F05FFB05463DB10120B1
:101BD00084F83400A06B2843A0630120E5E7204689
:101BE00001F0D1FA05463DB1012084F83400A06B24
:101BF0002843A0630120D8E74FF40071206800F06B
:101C00004BFF05464DB1074821688863A06B284308
:101C1000A063012084F83400C7E70020C5E7000076
:101C2000A0802542FF05400010B586B00446594902
:101C3000206888427ED100BF00200090564800688E
:101C400040F40060544908600846006800F40060F1
:101C5000009000BF00BF00BF00BF002000904E48B2
:101C60001438006840F004004B49143908600846F5
:101C7000006800F00400009000BF00BF00BF00BF7C
:101C800000BF002000900846006840F00400086093
:101C90000846006800F00400009000BF00BF00BFCD
:101CA00000BF00BF002000900846006840F004001C
:101CB00008600846006800F00400009000BF00BF04
:101CC00000BF00BF00BF002000900846006840F041
:101CD000040008600846006800F00400009000BF9F
:101CE00000BF00BF00BF00BF002000900846006892
:101CF00040F0040008600846006800F0040000900E
:101D000000BF00BF00BF00BF00BF0020009008461A
:101D1000006840F0080008600846006800F008000D
:101D2000009000BF00BF00BF881501900220029004
:101D3000012000E02BE00390022004900C2005908D
:101D400001A91648FEF75EFE4FF40070019001A94C
:101D50001248FEF757FE4FF48060019001A90F482A
:101D6000FEF750FE4FF40060019001A90B48FEF70A
:101D700049FE4FF48050019001A90848FEF742FE49
:101D80000420019001A90648FEF73CFE00BF06B002
:101D900010BD0000002C0140443802400008024001
:101DA000000C02402DE9F04F85B00446884691466C
:101DB0001D460E9E002004900120029000200190FC
:101DC00000BF94F85000012803D1022005B0BDE8FF
:101DD000F08F012084F8500000BFFEF733FF074664
:101DE00094F851B060680390AA46BBF1010F0BD084
:101DF0000398B0F5827F04D1A06810B9BBF1040F3D
:101E000002D0022001902CE1B8F1000F03D0B9F10B
:101E1000000F00D015B90120019022E194F8510083
:101E2000042802D0052084F8510000206065C4F821
:101E30003890E587A587C4F83080E586A5862064BC
:101E40006064A06AB0F5005F0DD100BF2068006833
:101E500020F40050216808602068006840F40050B9
:101E60002168086000BF2068006800F0400040283A
:101E700005D02068006840F0400021680860E068F4
:101E8000B0F5006F56D1606810B1BAF1010F09D1F9
:101E9000206B00882168C860206B801C2063E08E66
:101EA000401EE0863FE02068806800F002000228C3
:101EB0001CD1E08ED0B10298012817D1206B008888
:101EC0002168C860206B801C2063E08E401EE08685
:101ED00000200290E08E48B9A06AB0F5005F05D1FD
:101EE0002068006840F4805021680860206880689D
:101EF00000F0010068B1E08F58B12068C068A16BA4
:101F00000880A06B801CA063E08F401EE08701204A
:101F10000290FEF797FEC01BB04204D3701C10B1B4
:101F2000032001909DE0E08E0028BCD1E08F0028C6
:101F3000B9D156E0606810B1BAF1010F09D1206B38
:101F4000007821680873206B401C2063E08E401EDF
:101F5000E08640E02068806800F0020002281CD182
:101F6000E08ED0B10298012817D1206B007821684B
:101F70000873206B401C2063E08E401EE08600202A
:101F80000290E08E48B9A06AB0F5005F05D12068E4
:101F9000006840F48050216808602068806800F084
:101FA000010068B1E08F58B12068C068A16B08706B
:101FB000A06B401CA063E08F401EE08701200290D0
:101FC000FEF740FEC01BB04201D3701C00B916B929
:101FD0000320019045E0E08E0028BBD1E08F00286F
:101FE000B8D1A06AB0F5005F12D133460122114684
:101FF0002046009701F04CFA30B1606D40F00200CD
:102000006065032001902CE02068C068049000BF48
:102010002068806800F01000102809D1606D40F041
:10202000020060654FF6EF70216888600120019022
:102030003A463146204601F0F5F920B101200190E1
:10204000202060650DE0A06850B900BF002000901E
:102050002068C068009020688068009000BF00BFC2
:1020600000BF012084F8510000BF002084F8500018
:1020700000BF0198AAE6042808D14FF0E0210969C1
:1020800041F004014FF0E022116107E04FF0E02140
:10209000096921F004014FF0E0221161704770B529
:1020A00004462546681EB0F1807F01D301200FE071
:1020B000681E4FF0E02148610F214FF0FF3001F022
:1020C00001FD00204FF0E021886107200861002019
:1020D00070BD10B504460CB9012010BD94F83D0048
:1020E00028B9002084F83C00204600F025F80220A2
:1020F00084F83D00211D206801F068FA012084F871
:10210000460000BF84F83E0001213F2001554020D9
:1021100001554120015500BF00BF012084F8420055
:1021200043200155442001554520015500BF0120A1
:1021300084F83D000020D0E770470000014691F888
:102140003D00012801D001207047022081F83D00A8
:102150000868C06840F001000B68D8601A4B086836
:1021600098421BD00868B0F1804F17D0174B086811
:10217000984213D0164B086898420FD0154B086848
:1021800098420BD0144B0868984207D0134B08684C
:10219000984203D0124B086898420CD108688068B6
:1021A00000F00702062A0CD00868006840F0010021
:1021B0000B68186005E00868006840F001000B68D3
:1021C00018600020C0E7000000000140000400404B
:1021D00000080040000C00400004014000400140A5
:1021E00000180040704770472DE9F84F04462068FA
:1021F00005682068C668206847694FF00009CA462C
:1022000005F00F09B9F1000F0AD105F0200038B12F
:1022100006F0200020B1204601F079FABDE8F88FE1
:10222000B9F1000F72D007F0010018B906F49070F0
:1022300000286BD005F0010030B106F4807018B1B1
:10224000206C40F00100206405F0040030B107F07C
:10225000010018B1206C40F00200206405F002007B
:1022600030B107F0010018B1206C40F00400206488
:1022700005F0080048B106F0200010B907F0010091
:1022800018B1206C40F008002064206C70B305F099
:10229000200028B106F0200010B1204601F037FAE6
:1022A00020684069C0F3801A206C00F0080010B963
:1022B000BAF1000F23D0204601F0FEF920684069F2
:1022C00000F04000402816D12068406920F040000E
:1022D00021684861A06B50B15648A16B0865A06B9E
:1022E000FEF776FB10B1A06B016D88470CE020462D
:1022F000FFF779FF08E02046FFF775FF04E020466E
:10230000FFF771FF0020206488E7FFE7206B0128BA
:1023100079D105F01000002875D006F010000028D3
:1023200071D000BF002000902068006800902068F5
:102330004068009000BF00BF2068406900F0400086
:10234000402839D1A06B006840681FFA80F8B8F1C6
:10235000000F30D0A08D40452DDDA4F82E80A06B5D
:10236000C069B0F5807F1FD02068C06820F48070FD
:102370002168C8602068406920F001002168486138
:102380002068406920F0400021684861202084F8DE
:102390003E00002020632068C06820F01000216803
:1023A000C860A06BFEF7BFFAA08DE28D801A81B2E3
:1023B0002046FFF717FF31E7A08DE18D401A1FFA85
:1023C00080F8E08DE8B1B8F1000F1AD02068C0683D
:1023D00020F490702168C8602068406920F00100F6
:1023E00021684861202084F83E0000202063206896
:1023F000C06820F010002168C86041462046FFF701
:10240000F1FE0BE7FFE705F0800030B106F0800039
:1024100018B1204601F013FB00E705F0400030B191
:1024200006F0400018B1204601F061F9F6E600BF61
:10243000F4E60000A536000810B504460CB90120EA
:1024400010BDA06900B100E000BF94F83D0028B9BC
:10245000002084F83C00204600F028F8242084F86E
:102460003D002068C06820F400502168C860204604
:1024700001F0ACF92068006920F4904021680861FF
:102480002068406920F02A00216848612068C068FF
:1024900040F400502168C86000202064202084F8A7
:1024A0003D0084F83E000020CAE7000010B586B069
:1024B00004462D492068884254D100BF00BF002047
:1024C00000902A48006840F4003028490860084617
:1024D000006800F40030009000BF00BF00BF00BFE4
:1024E00000BF0020009021481038006840F0010033
:1024F0001E49103908600846006800F0010000908D
:1025000000BF00BF00BF00BF00BF00200090084612
:10251000006840F0010008600846006800F0010013
:10252000009000BF00BF00BF042001900220029075
:1025300001200390022004900720059001A90C4877
:10254000FEF760FA082001900720059001A90848CD
:10255000FEF758FA2620FEF7A6FD03221146262094
:10256000FEF7B1FD06B010BD004400404038024007
:102570000000024070B504460D46164694F83E0031
:10258000202816D105B10EB9012070BD00BF94F806
:102590003C00012801D10220F7E7012084F83C002B
:1025A00000BF0020206332462946204601F024FA6D
:1025B000EBE70220E9E7000010B504462049206857
:1025C00088423BD11F48008800F4004088BB1D486A
:1025D000008800F4804070B11B4800780A2803D0BE
:1025E00000201849088024E01648008840F4004084
:1025F000144908801DE0144800780D2806D11148C0
:10260000008840F480400F49088012E00E480078AE
:102610000C490988C1F30D010C4A5054094800883F
:10262000401C0849088008460088C72801DD0020B2
:102630000880012204490648FFF79CFF10BD0000F6
:102640000044004010000020120000208001002003
:1026500048020020704700BFFEE701460868406955
:10266000C0F38020B0B16FF480600A685061002030
:102670000863202081F83D00002081F83E00086CAE
:1026800040F00400086400BF002081F83C0000BF57
:10269000012070470020FCE72DE9F84304460D4671
:1026A00017469846E66A082E04D0012E02D016F589
:1026B000803F06D12068006840F48070216808607F
:1026C00008E0206B122805D12068006840F4807073
:1026D000216808603B4600224FF001112046CDF8EA
:1026E000008000F067F860B12068006800F4807036
:1026F000B0F5807F02D14FF4007020640320BDE864
:10270000F8832069B0F5804F04D105F0FE00216800
:10271000086112E005F44070F02141EAE010216800
:10272000086143463A460B49204600F086F808B156
:102730000120E4E7E8B22168086143463A460549CA
:10274000891F204600F079F808B10120D7E7002062
:10275000D5E700000800010070B504460D46164696
:1027600020E02046FFF779FF08B1012070BD681C0A
:10277000C0B1FEF767FA801BA84200D895B90020C7
:102780002063202084F83D00002084F83E00206C67
:1027900040F02000206400BF002084F83C0000BF0F
:1027A0000120E3E720684069C0F380000028D8D00A
:1027B0000020DBE72DE9F04104460D4617461E4692
:1027C000DDF818801CE0701CD0B1FEF73BFAA0EBDE
:1027D0000800B04200D89EB900202063202084F871
:1027E0003D00002084F83E00206C40F02000206472
:1027F00000BF002084F83C0000BF0120BDE8F0814C
:10280000C5F3074001280AD120684069A9B20840F1
:10281000A9B2884201D101200BE0002009E0206824
:102820008069A9B20840A9B2884201D1012000E024
:102830000020B842C7D00020E0E72DE9F04104466F
:102840000D4616461F463DE020684069C0F38020D3
:10285000E8B12068006840F40070216808606FF4F7
:1028600080602168486100202063202084F83D00BA
:10287000002084F83E00206C40F00400206400BF7B
:10288000002084F83C0000BF0120BDE8F081701CEE
:10289000C0B1FEF7D7F9C01BB04200D896B90020EE
:1028A0002063202084F83D00002084F83E00206C46
:1028B00040F02000206400BF002084F83C0000BFEE
:1028C0000120E2E7C5F3074001280AD120684069EA
:1028D000A9B20840A9B2884201D101200BE0002032
:1028E00009E020688069A9B20840A9B2884201D1F4
:1028F000012000E000200028A6D00020C5E770B528
:1029000004460D46164620E02046FFF7A6FE08B115
:10291000012070BD681CC0B1FEF794F9801BA8426D
:1029200000D895B900202063202084F83D000020C5
:1029300084F83E00206C40F02000206400BF00209E
:1029400084F83C0000BF0120E3E720684069C0F341
:10295000C0100028D8D00020DBE700BFFEE770479A
:10296000704710B5024600230868506248689062BC
:10297000D1E9020420430C6920434C6920430343FE
:10298000D06A20F0F7001843D062002010BD014645
:102990000869C0B270470146086800F0030070473C
:1029A000024602F114004318186870470FB410B5BE
:1029B00004460021DDE903021043059A1043069AFC
:1029C0001043079A1043089A10430143606847F682
:1029D000FF62904308436060002010BC5DF814FB68
:1029E00010B50446032020600220FEF705F8002001
:1029F00010BD0146D1F88000704710B50246002393
:102A000008689060D1E901042043CC6820430C6938
:102A100020430343D0686FF30B001843D0600020BD
:102A200010BD70B586B005460C4601943720029063
:102A300040200390002004904FF48060059001A98D
:102A40002846FFF7DAFF41F288323721284600F0A6
:102A500033F90646304606B070BD000070B586B04A
:102A600005460C460B482043019029200290402047
:102A70000390002004904FF48060059001A928463F
:102A8000FFF7BBFF284600F01FFA0646304606B0A7
:102A900070BD00000000108070B586B005460C4681
:102AA00001941020029040200390002004904FF4E5
:102AB0008060059001A92846FFF79FFF41F2883208
:102AC0001021284600F0F8F80646304606B070BDE2
:102AD00070B586B005460C46019406200290402051
:102AE0000390002004904FF48060059001A92846CF
:102AF000FFF783FF41F288320621284600F0DCF818
:102B00000646304606B070BD30B585B0044600209C
:102B100000900190029003904FF480600490694609
:102B20002046FFF76AFF204600F0A6F80546284633
:102B300005B030BD30B585B004464FF4D570009077
:102B40000820019040200290002003904FF4806004
:102B5000049069462046FFF750FF204600F03CFAFB
:102B60000546284605B030BDF0B585B0064614468A
:102B70001D46009407200190402002900020039001
:102B80004FF48060049069463046FFF736FF41F20B
:102B900088320721304600F08FF80746384605B0E6
:102BA000F0BD30B585B004460020009002200190B1
:102BB000C0200290002003904FF48060049069468A
:102BC0002046FFF71AFF204600F04CF9054628463C
:102BD00005B030BD70B586B005460C46019409209D
:102BE0000290C0200390002004904FF48060059074
:102BF00001A92846FFF701FF284600F033F90646F1
:102C0000304606B070BD30B585B004460020009057
:102C10003320019040200290002003904FF4806008
:102C2000049069462046FFF7E8FE41F288323321DE
:102C3000204600F041F80546284605B030BD70B585
:102C400086B005460C4600200190032002904020EB
:102C50000390002004904FF48060059001A928465D
:102C6000FFF7CBFE22460321284600F059F906461D
:102C7000304606B070BD000001460E480068C0082E
:102C80004FF47A73B0FBF3F041F2883300FB03F2A8
:102C900000BF101EA2F1010202D14FF000407047A8
:102CA000486B00F080000028F3D0C5208863002026
:102CB000F5E70000000000202DE9F04305460F462F
:102CC000904666480068C0084FF47A71B0FBF1F096
:102CD00000FB08F900BFB9F10000A9F1010903D117
:102CE0004FF00040BDE8F0836E6B06F04500002811
:102CF000F1D006F400600028EDD1686B00F004000C
:102D000010B10420A863EDE7686B00F0010010B17A
:102D10000120A863E6E7C520A8632846FFF737FE31
:102D2000B84201D00120DDE700212846FFF738FE38
:102D300004464B48204008B90020D3E704F0004087
:102D4000B0F1004F02D14FF00070CBE704F08040AB
:102D5000B0F1804F01D14020C4E704F00050B0F141
:102D6000005F01D18020BDE704F08050B0F1805FAA
:102D700002D14FF48070B5E704F00060B0F1006F4D
:102D800002D14FF40070ADE704F08060B0F1806FC5
:102D900002D14FF48060A5E704F08070B0F1807F2D
:102DA00002D14FF400609DE704F40000B0F5000F7D
:102DB00002D14FF4805095E704F48000B0F5800F05
:102DC00002D14FF400508DE704F40010B0F5001F5D
:102DD00002D14FF4804085E704F48010B0F5801FE5
:102DE00002D14FF400407DE704F48020B0F5802F3D
:102DF00002D14FF4003075E704F40030B0F5003F25
:102E000002D14FF480206DE704F48030B0F5803FAC
:102E100002D14FF4002065E704F40040B0F5004F04
:102E200002D14FF480105DE704F48040B0F5804F8C
:102E300002D14FF4001055E704F40050B0F5005FE4
:102E400002D14FF480004DE704F00800082801D1BA
:102E5000000547E74FF4803044E700000000002001
:102E600008E0FFFD10B5014616480068C0084FF4A1
:102E70007A74B0FBF4F041F2883400FB04F300BF35
:102E8000181EA3F1010302D14FF0004010BD4A6BA0
:102E900002F045000028F3D002F400600028EFD1D2
:102EA000486B00F0040010B104208863EEE7486B23
:102EB00000F0010010B101208863E7E7C5208863B6
:102EC0000020E3E70000002010B501461348006829
:102ED000C0084FF47A74B0FBF4F041F2883400FB80
:102EE00004F300BF181EA3F1010302D14FF000400C
:102EF00010BD4A6B02F045000028F3D002F40060D8
:102F00000028EFD1486B00F0040010B10420886362
:102F1000EEE7C52088630020EAE7000000000020FB
:102F20002DE9F04304460F4690462A480068C00841
:102F30004FF47A71B0FBF1F041F2883100FB01F9F6
:102F400000BFB9F10000A9F1010903D14FF0004021
:102F5000BDE8F083666B06F045000028F1D006F46A
:102F600000600028EDD1606B00F0040010B1042077
:102F7000A063EDE7606B00F0010010B10120A063D9
:102F8000E6E72046FFF703FDB84201D00120DFE766
:102F9000C520A06300212046FFF702FD054605F489
:102FA000604020B9280CA8F800000020D0E705F404
:102FB0008040B0F5804F02D14FF40050C8E705F4CF
:102FC0000040B0F5004F02D14FF48050C0E74FF4FD
:102FD0008030BDE70000002010B5014618480068A9
:102FE000C0084FF47A74B0FBF4F041F2883400FB6F
:102FF00004F300BF181EA3F1010302D14FF00040FB
:1030000010BD4A6B02F045000028F3D002F40060C6
:103010000028EFD1486B00F0040010B10420886351
:10302000EEE7486B00F0010010B101208863E7E78C
:10303000486B00F0400008B1402088630020DFE7C3
:10304000000000202DE9F04389B004460F46FDF74B
:10305000F9FD81464FF000080020019002903E46A5
:1030600008212068FFF718FD05461DB1284609B064
:10307000BDE8F0835022125B11042068FFF7D1FCF9
:1030800005460DB12846F2E74FF0FF3003900820C7
:103090000490302005900220069000200790012027
:1030A000089003A92068FFF75CFC2068FFF7ABFDE0
:1030B00005460DB12846DAE71CE02068406B00F4B5
:1030C000001040B12068FFF794FC01A941F82800E6
:1030D00008F1010805E02068406B00F4005000B9D9
:1030E0000EE0FDF7AFFDA0EB0900401C10B94FF05A
:1030F0000040BCE72068406B00F02A000028DCD0CC
:1031000000BF2068406B00F0080018B1082021685B
:103110008863ACE72068406B00F0020018B1022021
:1031200021688863A3E72068406B00F0200018B195
:103130002020216888639AE740F23A50216888632A
:1031400002980006029901F47F4140EA01200299A9
:1031500001F47F0140EA1120029940EA11603060D9
:10316000361D01980006019901F47F4140EA0120D3
:10317000019901F47F0140EA1120019940EA1160B0
:103180003060002073E730B58FB004460120039013
:103190002068FFF700FC18B94FF080600FB030BD19
:1031A000606C03281BD02068FFF7FBFC05460DB1BF
:1031B0002846F3E700212068FFF7F2FB606704214F
:1031C0002068FFF7EDFBA06708212068FFF7E8FB08
:1031D000E0670C212068FFF7E3FB80210851606C59
:1031E000032807D003A92068FFF729FD05460DB184
:1031F0002846D3E7606C032820D0BDF80C10216569
:103200005022125B11042068FFF7E4FC05460DB163
:103210002846C3E700212068FFF7C2FB606604214F
:103220002068FFF7BDFBA06608212068FFF7B8FB08
:10323000E0660C212068FFF7B3FB206704212068BB
:10324000FFF7AEFB010DE16404A92046FEF780FB09
:1032500010B14FF08050A1E75020005B01040A46F6
:1032600000232068FFF780FC05460DB1284695E74E
:10327000D4E90412A069CDE90012029094E80F008D
:10328000FFF794FB002089E7F8B504460020009082
:10329000002600272068FFF737FC05460DB12846B9
:1032A000F8BD2068FFF746FC054645B10021A16442
:1032B0002068FFF729FC05461DB12846F0E70121EB
:1032C000A164A06C012808D100212068FFF7A9FBA8
:1032D000054615B14FF08050E2E71DE0002120685F
:1032E000FFF79FFB05460DB12846D9E7184920682E
:1032F000FFF7B4FB054615B14FF08050D0E7002131
:103300002068FFF74DFB0646012080EAD67080F06A
:1033100001070098401C00904FF6FF71009888420A
:1033200001D2002FDAD04FF6FF710098884202D305
:103330004FF08070B4E706F08040B0F1804F02D1CA
:103340000120606401E0002060640020A8E7000024
:10335000000010C17CB504460020009001900021BF
:103360002068FFF71DFB00F00070B0F1007F02D174
:103370004FF400607CBD69462046FFF763FE0546BA
:103380000DB12846F6E7019800F4803098B150223C
:10339000125B11042068FFF744FB05460DB1284677
:1033A000E8E700212068FFF793FB05460DB12846AA
:1033B000E0E70020DEE74FF08060DBE77CB5044605
:1033C00000200090019000212068FFF7E9FA00F04A
:1033D0000070B0F1007F02D14FF400607CBD6946FF
:1033E0002046FFF72FFE05460DB12846F6E7019867
:1033F00000F4802098B15022125B11042068FFF77E
:1034000010FB05460DB12846E8E702212068FFF7CA
:103410005FFB05460DB12846E0E70020DEE74FF0F0
:103420008060DBE77CB504460D461646164800680A
:103430001821B0FBF1F01549B0FBF1F04FF47A71AF
:10344000484301906068B0F5827F0DD12B46002281
:1034500080212046009600F01BF898B1606D40F086
:103460002000606503207CBD00BF019800B908E022
:103470000198401E019020688068C0F3C0100028A9
:10348000F3D100BF0020EEE70000002040420F0013
:103490002DE9F84F04460D4690461E46DDF828906B
:1034A000FDF7D0FBA0EB0900371AFDF7CBFB8246F6
:1034B0002C480068C0F3CB307843009045E0701C86
:1034C000002842D0FDF7BEFBA0EB0A00B84200D2B4
:1034D000A7BB2068406820F0E00021684860606871
:1034E000B0F5827F0DD1A068B0F5004F03D0A06881
:1034F000B0F5806F05D12068006820F04000216899
:103500000860A06AB0F5005F0DD100BF20680068B8
:1035100020F40050216808602068006840F40050E2
:103520002168086000BF012084F8510000BF00201E
:1035300084F8500000BF0320BDE8F88FFFE7009833
:1035400000B900270098401E00902068806828403D
:10355000A84201D1012000E000204045AFD1002069
:10356000EAE7000000000020704710B5FDF750FDAD
:1035700010BD00000348006840F470000149086075
:103580007047000088ED00E010B50E480068C06884
:1035900000F0010078B10C49086980470020094912
:1035A0000968486200BF642006490968C86264214E
:1035B0000448C16000BF6FF001000249096808615A
:1035C00010BD0000DC0900208C00002010B502684E
:1035D000294B98420ED0B0F1804F0BD0274B984228
:1035E00008D0274B984205D0264B984202D0264B54
:1035F000984203D122F070024B681A431E4B984246
:1036000020D0B0F1804F1DD01C4B98421AD01C4BDB
:10361000984217D01B4B984214D01B4B984211D0A4
:103620001A4B98420ED01A4B98420BD0194B984225
:1036300008D0194B984205D0184B984202D0184B2D
:10364000984203D122F44072CB681A4322F08003DF
:103650004C6943EA040202608B68C3620B688362B0
:10366000054B984202D0084B984201D10B69036385
:103670000123436110BD0000000001400004004030
:1036800000080040000C00400004014000400140E0
:10369000004401400048014000180040001C004068
:1036A0000020004070B50546AC6B0020E085E0844A
:1036B0002046FEF798FD70BD0168C96821F490713D
:1036C0000268D1600168496921F001010268516115
:1036D000016B012905D10168C96821F01001026858
:1036E000D160202180F83E1000210163704710B5A1
:1036F00004462068C06820F040002168C86020208F
:1037000084F83D002046FEF7A5FF002010BD70B5EF
:10371000044694F83E00222856D1A068B0F5805F98
:103720000CD1206950B90025A66A20684068C0F312
:1037300008003080A06A801CA06215E0A56A0026FF
:10374000A068B0F5805F03D0A06828B9206918B9D7
:1037500020684068287004E02068406800F07F001E
:103760002870A06A401CA062E08D401E80B2E085F7
:1037700040BB2068C06820F020002168C860206835
:10378000C06820F480702168C8602068406920F01B
:10379000010021684861202084F83E00206B012848
:1037A0000AD12068C06820F010002168C860A18D8F
:1037B0002046FEF717FD02E02046FEF7FDFE002042
:1037C000206370BD0020FCE70220FAE72DE9F84FE6
:1037D00004462068006920F44050E16808432168ED
:1037E00008612169A068084361690843E1690843E9
:1037F00000902068C06849F20C6188430099084332
:103800002168C8602068406920F44070A1690843BD
:103810002168486176492068884203D0754920684C
:10382000884203D1FDF77AFD814602E0FDF766FD8F
:103830008146E069B0F5004F6CD102206168A0FBC1
:10384000015003461920A9FB007001462A4638465C
:10385000FCF741FD6421B0FBF1F04FEA001A0220B1
:103860006168A0FB01510B461920A9FB00712A4693
:103870003846FCF730FD834602206168A0FB01500A
:1038800003461920A9FB00712A463846FCF723FDA0
:103890006421B0FBF1F000EBC00101EB0010ABEBD9
:1038A0008000322101EBC0006421B0FBF1F000F098
:1038B000F8000AEB400A02206168A0FB01500346B1
:1038C0001920A9FB007001462A463846FCF703FD83
:1038D000834602206168A0FB015003461920A9FB22
:1038E00000712A463846FCF7F6FC6421B0FBF1F083
:1038F00000EBC00101EB0010ABEB8000322101EBCB
:10390000C0006421B0FBF1F000F0070050442168D2
:1039100088606AE004206168A0FB0150034619201A
:10392000A9FB007001462A463846FCF7D4FC8246C3
:1039300004206168A0FB015003461920A9FB007018
:1039400001462A463846FCF7C6FC6421B0FBF1F07C
:1039500000EBC00101EB0010AAEB8000322101EB6B
:1039600000106421B0FBF1F000F0F00A042061685F
:10397000A0FB017003461920A9FB00513A462846D6
:10398000FCF7A9FC6421B0FBF1F00AEB001A04205B
:103990006168A0FB01510B461920A9FB00712A4662
:1039A0003846FCF798FC834604206168A0FB015070
:1039B00003461920A9FB007001462A463846FCF749
:1039C0008AFC6421B0FBF1F000EBC00101EB0010B8
:1039D000ABEB8000322101EB00106421B0FBF1F071
:1039E00000F00F00504421688860BDE8F88F0000A7
:1039F000001001400014014010B5034699629A85F9
:103A0000DA8500201864222083F83E0000BF0020E1
:103A100083F83C0000BF1868C06840F480701C68E0
:103A2000E0601868406940F001001C686061186837
:103A3000C06840F020001C68E060002010BD014616
:103A400091F83D00212828D18868B0F5805F0BD11E
:103A5000086948B90A6A1088C0F308000B68586002
:103A6000086A801C086205E00B6A581C0862187816
:103A70000B685860C88C401E80B2C88458B908686A
:103A8000C06820F080000B68D8600868C06840F00B
:103A900040000B68D860002070470220FCE700005F
:103AA00010B50248FEF7A0FB10BD00004802002040
:103AB00000BFFEE702480068C0F302207047000024
:103AC0000CED00E010B5002804DB0A07130E054AD0
:103AD000135406E00A07140E034A00F00F031B1FDD
:103AE000D45410BD00E400E018ED00E030380A289E
:103AF00001D2012070470020704700BF704770B5A9
:103B0000FF25284600F025F80446552C01D1002059
:103B100070BD5521284600F057F8FF2000F019F835
:103B20000446552C01D10020F2E70120F0E770B5E2
:103B300005460C46164606E028466A1C95B200F07B
:103B400008F804F8010B301EA6F101018EB2F3D182
:103B500070BD70B50446002600F0B0FC2112A02212
:103B600002EB4101C8B200F071FC00F0EFFC254609
:103B7000E11704EB11610912A4EB0121C8B200F0B6
:103B800065FC00F0E3FC00F099FCA12000F05EFC75
:103B900000F0DCFC002000F029FC064600F0B6FC3A
:103BA000304670BD70B505460C46164606E02178D5
:103BB000284600F009F8681C85B2641C301EA6F186
:103BC00001018EB2F3D170BD70B504460E4600F00F
:103BD00075FC2112A02202EB4101C8B200F036FCB4
:103BE00000F0B4FC2546E11704EB11610912A4EBC7
:103BF0000121C8B200F02AFC00F0A8FC304600F019
:103C000025FC00F0A3FC00F081FC0A2000F06CF918
:103C100070BD000070B5082000F060F8054609206E
:103C200000F05CF8044644F66771601A8C421DD0BF
:103C30000DDCA4F58040A0F5A270A8B1102812D028
:103C4000B0F53F6F11D0B0F5416F24D10AE0A0F27A
:103C5000E67060B1A0F6FF60B0B1A0F580501938F1
:103C6000C8B909E000BF00BF00BF00BF00BF7D2092
:103C7000B5FBF0F080B270BD4FF6FF70854202D107
:103C800040F28350F7E700BF68014FF47A71B0FB50
:103C9000F1F080B2EFE7E41004F00304032C01D14B
:103CA000012400E00024034800EB4410290B30F805
:103CB0001100E0E7CA65000810B541F6056000F0A4
:103CC00001F810BD70B504462146072000F0B6F893
:103CD000062000F003F80546284670BD70B505467D
:103CE000002400BF40211A48FCF78EFF0028F9D0BD
:103CF00000F09FF800BF0122D1021648FCF796FFA2
:103D000000BF00BF00224FF480611248FCF78EFF15
:103D100000BF032000F082F8284600F07FF8FF2063
:103D200000F07CF804464FF6FF7000EA0424FF2000
:103D300000F074F8204484B200BF012291020548CB
:103D4000FCF774FF00BF00F06FF8204670BD000064
:103D5000001402400004024070B505460020FFF741
:103D6000BDFF044624F0100424F0800405F0010097
:103D700008B144F0100405F0020008B144F08004DA
:103D80002146002000F05AF870BD10B504461021FD
:103D90004CF2170000F088F821014CF2190000F0F5
:103DA00083F810BD2DE9F04706460F4690461D46A4
:103DB0000024A5F108004FFA80F909F00F044FF62E
:103DC000FF7000EA041408F00F0004444FF6FF707F
:103DD00000EA041407F00F0004444FF6FF7000EAF5
:103DE000041406F00F00204484B22146022000F0A3
:103DF00025F8BDE8F08770B505460024C5F1FE0042
:103E000084B24FF6FF7000EA0424C5F1FE0020449E
:103E100084B221460B2000F011F870BD10B50446A5
:103E2000204600F04BFF10BD10B5022000F056FFF9
:103E300010BD10B5042000F051FF10BD70B505464F
:103E40000C4600BF40211648FCF7DEFE0028F9D0E2
:103E5000FFF7EFFF00BF0122D1021248FCF7E6FE98
:103E600000BF00BF00224FF480610E48FCF7DEFE69
:103E700000BF0220FFF7D2FF2846FFF7CFFF201236
:103E8000FFF7CCFFE0B2FFF7C9FF00BF01229102AC
:103E90000448FCF7CBFE00BFFFF7C6FF70BD000073
:103EA000001402400004024070B504460D4621464D
:103EB0000720FFF7C3FF00BF40210548FCF7A4FE21
:103EC0000028F9D029460620FFF7B8FF70BD000092
:103ED0000014024010B504460420FEF7CCF8014857
:103EE000046010BD0800002070B504461E2094FB3D
:103EF000F0F594FBF0F100FB114604E047F230507E
:103F000000F00CF86D1E002DF8D12EB14FF47A712F
:103F100006FB01F000F002F870BD000070B503462A
:103F200000224FF0E02675690D4E366803FB06F45B
:103F30004FF0E026B16910E04FF0E026B06988420A
:103F40000BD0884202D20E1A324402E02E1A0E44DE
:103F500032440146A24200D300E0EDE700BF70BD4D
:103F60000800002008B500F045FC01201023802245
:103F700000210090084600F02BFD012010237F2235
:103F800019460090002000F0AAFC012020237F2287
:103F900019460090002000F0A2FC012030237F226F
:103FA00019460090002000F09AFC012040231A4698
:103FB00010210090184600F092FC2948007840B18A
:103FC000012008231A4612210090052000F04EFD22
:103FD00007E0012008231A4612210090052000F076
:103FE000F7FC1F48407840B1012008231A462221DF
:103FF0000090052000F03AFD07E0012008231A4652
:1040000022210090052000F0E3FC1548807840B1A3
:10401000012008231A4632210090052000F026FDD9
:1040200007E0012008231A4632210090052000F005
:10403000CFFC0B48C07840B1012008231A4612215A
:104040000090462000F012FD07E0012008231A46E8
:1040500012210090462000F0BBFC00F095FD08BD49
:104060000400002000BF054A126802F04002002A46
:10407000F9D0C2B2014B1B1D1A60704700440040CA
:1040800070B5044621460348FDF746FD054628461F
:1040900070BD00008C02002001244CA0FCF792F9B6
:1040A0004CA0FCF78FF956A0FCF78CF949A0FCF75F
:1040B00089F95CA0FCF786F946A0FCF783F901F0CA
:1040C0001BF818B901206149487003E000205F49DE
:1040D0004870002400F08CFE18B901205B498870FC
:1040E00003E0002059498870002401F091F818B9C4
:1040F00001205649C87003E000205449C8700024CC
:1041000000F04EFF18B901205049087003E000206C
:104110004E49087000244EA0FCF754F958A0FCF753
:1041200051F92CA0FCF74EF94848407808B15BA043
:1041300000E05CA001465DA0FCF744F943488078AC
:1041400008B156A000E057A001465CA0FCF73AF980
:104150003E48C07808B151A000E052A001465BA0E3
:10416000FCF730F93948007808B14CA000E04DA0C8
:1041700001465AA0FCF726F916A0FCF723F91CB15A
:104180005AA0FCF71FF902E05DA0FCF71BF962A042
:10419000FCF718F9FFF7E6FE16E054B100BF4FF444
:1041A00000716948FCF738FD00BFC820FFF79CFE8E
:1041B0000AE000BF4FF400716348FCF72DFD00BF1B
:1041C0004FF47A70FFF790FEE7E700000D0A0D0A42
:1041D000000000003D3D3D3D3D3D3D3D3D3D3D3D03
:1041E0003D3D3D3D3D3D3D3D3D3D3D3D3D3D3D3DFF
:1041F0003D3D3D3D3D3D3D3D3D3D3D3D0D0A0000CC
:10420000202053544D333246343037204861726495
:104210007761726520546573742050726F677261A4
:104220006D0D0A0054657374696E673A204B4559E9
:104230002C204F4C45442C20415432344330322CF6
:1042400020534420436172640D0A000004000020E2
:104250000D0A3D3D3D3D3D3D3D3D3D3D3D3D3D3DF1
:104260003D3D3D3D3D3D3D3D3D3D3D3D3D3D3D3D7E
:104270003D3D3D3D3D3D3D3D3D3D0D0A00000000C5
:1042800020205465737420526573756C74732053C9
:10429000756D6D6172790D0A000000005041535335
:1042A000000000004641494C000000004F4C4544CE
:1042B000202020203A2025730D0A0000415432347A
:1042C000433032203A2025730D0A00005344204326
:1042D000617264203A2025730D0A00004B45592075
:1042E000202020203A2025730D0A0000416C6C200C
:1042F000546573747320504153534544210D0A0093
:10430000536F6D65205465737473204641494C4565
:1043100044210D0A000000003D3D3D3D3D3D3D3D39
:104320003D3D3D3D3D3D3D3D3D3D3D3D3D3D3D3DBD
:104330003D3D3D3D3D3D3D3D3D3D3D3D3D3D3D3DAD
:104340000D0A0D0A000000000014024010B500BF65
:1043500000224FF400711148FCF768FC00BF00F028
:104360001FF800BF012211020C48FCF75FFC00BFE0
:1043700000F016F800BF00224FF480710748FCF7E8
:1043800055FC00BF00F00CF800BF012251020348A9
:10439000FCF74CFC00BF00F003F810BD0004024025
:1043A00010B50220FFF7BAFD10BD000010B500BF28
:1043B000012251020C48FCF739FC00BFFFF7F0FF67
:1043C00000BF012211020848FCF730FC00BFFFF7D4
:1043D000E7FF00BF00224FF480710348FCF726FC82
:1043E00000BFFFF7DDFF10BD0004024070B50546B9
:1043F000002400261EE06006040E00BF0122110208
:104400001148FCF713FC00BFFFF7CAFF4FF400711F
:104410000D48FCF7F9FB08B1601CC4B200BF0022D4
:104420004FF480710848FCF701FC00BFFFF7B8FFAC
:10443000701CC6B2082EDEDB15B9FFF7B7FF01E02E
:10444000FFF784FF204670BD0004024070B50446AB
:10445000002526E000BFE00928B1012251021648DC
:10446000FCF7E4FB05E000224FF400711248FCF772
:10447000DDFB00BFFFF794FF00BF012211020E48D1
:10448000FCF7D4FB00BFFFF78BFF00BF00224FF407
:1044900080710948FCF7CAFB00BF6006040E681C67
:1044A000C5B2082DD6DB00BF012251020248FCF73D
:1044B000BDFB00BF70BD00000004024010B500BF8E
:1044C000012251021048FCF7B1FB00BF00BF0122DE
:1044D00011020D48FCF7AAFB00BFFFF761FF00BF08
:1044E00000224FF400710848FCF7A0FB00BFFFF763
:1044F00057FF00BF00224FF480710348FCF796FB82
:1045000000BFFFF74DFF10BD0004024010B500BF13
:1045100000224FF400710C48FCF788FB00BFFFF746
:104520003FFF00BF012211020748FCF77FFB00BFDD
:10453000FFF736FF00BF012251020348FCF776FB6C
:1045400000BFFFF72DFF10BD0004024070B500242E
:10455000002500BF012251021548FCF767FB00BF90
:10456000FFF71EFF00BF012211021148FCF75EFB9E
:1045700000BFFFF715FF07E0601CC4B2FA2C03DD93
:10458000FFF7C4FF012506E04FF400710848FCF76F
:104590003BFB0028F0D100BF00BF00224FF4807128
:1045A0000348FCF743FB00BFFFF7FAFE284670BD47
:1045B0000004024000B587B000BF00BF002001909A
:1045C0002948006840F02000274908600846006834
:1045D00000F02000019000BF00BF00BF00BF00BF7F
:1045E000002001900846006840F02000086008465E
:1045F000006800F02000019000BF00BF00BF00BFB6
:1046000000BF002001900846006840F020000860CC
:104610000846006800F02000019000BF00BF00BF06
:10462000022002900020039002200490059002A92D
:104630000E48FCF7E7F904200290002003900220C6
:104640000490059002A90948FCF7DCF908200290C3
:104650000020039002200490059002A90348FCF773
:10466000D1F907B000BD000030380240001402400C
:1046700070B50446002514B1012023490870224872
:10468000007868B302212148FCF7BEFA01280BD05C
:1046900004211E48FCF7B8FA012805D008211B4860
:1046A000FCF7B2FA01281BD10A20FFF71DFC0020FD
:1046B0001549087002211548FCF7A6FA012800D117
:1046C000012504211148FCF79FFA012800D1022599
:1046D00008210E48FCF798FA012813D1032511E0B0
:1046E00002210A48FCF790FA60B904210748FCF758
:1046F0008BFA38B908210548FCF786FA10B9012071
:1047000001490870284670BD1D00002000140240B9
:1047100000B587B000BF00BF0020019020480068AE
:1047200040F020001E4908600846006800F02000A4
:10473000019000BF00BF00BF00BF00BF002001907C
:104740000846006840F0200008600846006800F055
:104750002000019000BF00BF00BF4815029001205B
:10476000039004900220059002A90E48FCF74AF934
:104770004FF48060029002A90A48FCF743F900BF99
:10478000012251020748FCF751FA00BF00BF012285
:1047900091020448FCF74AFA00BF07B000BD0000D0
:1047A000303802400014024010B5FCF73DFC0723EE
:1047B000022208214FF4A87000F0B4FAA820FFF7F5
:1047C00089FB4FF4E13000F0EDFDFFF7A1FFFFF7AB
:1047D000F1FE00F07FF905A20021084600F0F5F98E
:1047E00000F0D2F9FFF758FC002010BD4F4C4544B3
:1047F000204F4B0010B5002000F028F910BD2DE926
:10480000F04706460F4690469A46002445464FEA32
:104810004800C0F103094AE07A19D1B23219D0B286
:10482000524600F0ABF87A19D1B2321BD0B25246E0
:1048300000F0A4F87A1BD1B23219D0B2524600F07F
:104840009DF87A1BD1B2321BD0B2524600F096F8D6
:104850003A19D1B27219D0B2524600F08FF83A1913
:10486000D1B2721BD0B2524600F088F83A1BD1B2D6
:104870007219D0B2524600F081F83A1BD1B2721BC5
:10488000D0B2524600F07AF8B9F1000F05DAA00074
:10489000801D48440FFA80F907E0601B80000A3051
:1048A00048440FFA80F9681E05B2601C04B2AC429D
:1048B000B2DDBDE8F0872DE9F04105468846164691
:1048C0001F46002407E02919C8B23A46414600F0C5
:1048D00055F8601CC4B2B442F5DBBDE8F0812DE9A7
:1048E000FC4F0746884691469A46A9EB0705AAEB76
:1048F0000804002D01DB012001E04FF0FF300190A2
:10490000002C01DB012001E04FF0FF300090002D72
:1049100001DB284600E0684205B2002C01DB20469E
:1049200000E0604204B2A54201DD294600E0614298
:10493000084601EBD07149100EB21BE041463846E3
:104940000B9A00F01BF84F4502D1D04500D112E080
:10495000B3466842834504DD301B06B201983844F3
:10496000C7B2A34505DA701906B20098404400F0BA
:10497000FF0800BFE2E700BFBDE8FC8FF0B50346CB
:104980001546802B01DA402900DBF0BD0C46CE171E
:1049900001EB5676F61003EBC616B0B2CE1701EB5C
:1049A0005676F610A1EBC6070126BE40F2B22DB135
:1049B000064C245C1443054E345404E0034C245C40
:1049C0009443024E345400BFDFE70000DC050020B2
:1049D0002DE9F04106460F4615461C46DDF81880C5
:1049E00005B10CB9BDE8F08143462A463946304648
:1049F000FFF761FF3819401EC1B243462A463046D0
:104A0000FFF759FF434622463946304600F00AF880
:104A10007119491EC8B243462246394600F002F8D1
:104A200000BFDFE72DE9F04180460D4616461F46E0
:104A3000002407E02819C1B23A464046FFF79EFF1E
:104A4000601CC4B2B442F5DBBDE8F08110B5044689
:104A50000CB1FF2000E0002002464FF480610248C4
:104A6000FBF738FE10BD0000DC0500202DE9F04307
:104A700007460D4690461E46DDF81C90002408E0CF
:104A80002819C1B24B4642463846FFF714FF601C56
:104A9000C4B2B442F4DBBDE8F083000010B50A48AC
:104AA0000A4908600A484860002108488160C160DE
:104AB0004FF480410161002141618161C161016266
:104AC000FCF7C6F810BD0000005400408805002027
:104AD000801A060010B5FFF7E1FF6420FFF704FA23
:104AE000AE2000F08DF8D52000F08AF8802000F08C
:104AF00087F8A82000F084F83F2000F081F8D32048
:104B000000F07EF8002000F07BF8402000F078F8FC
:104B10008D2000F075F8142000F072F8202000F0CD
:104B20006FF8002000F06CF8A12000F069F8C820B0
:104B300000F066F8DA2000F063F8122000F060F868
:104B4000812000F05DF87F2000F05AF8D92000F0B5
:104B500057F8F12000F054F8DB2000F051F8402025
:104B600000F04EF8A42000F04BF8A62000F048F822
:104B70002E2000F045F8AF2000F042F8FFF73AFE93
:104B800000F002F810BD000070B5002416E000250A
:104B9000002604F1B001C8B200F032F8284600F057
:104BA0002FF806F1100000F02BF80649802202FBD6
:104BB0000410114600F036F8601CC4B2082CE6DB85
:104BC00070BD0000DC050020704730B504460D467E
:104BD000134610E0782C02DD0024A81CC5B2062D77
:104BE00000DD0BE01A7829462046FFF7EDFF04F1BF
:104BF0000800C4B25B1C18780028EBD100BF30BDA0
:104C00001CB5044600208DF804008DF80540642092
:104C1000022301AA782100900148FCF701F91CBD8C
:104C20008805002030B5A3B005460C46802C00DD79
:104C3000802440208DF80800002004E02A5C411CFC
:104C400002AB5A5488B2A042F8DB64200090601C8A
:104C500083B202AA78210248FCF7E2F823B030BD03
:104C600088050020014608687047000010B510480C
:104C7000104908600020486000210E488160C16032
:104C8000016141618161FCF75AFF04460CB10120CA
:104C900010BD09490748FCF73FFF00210548FCF714
:104CA000F3FD04460CB10220F2E70020F0E700001B
:104CB000002C01408C0200201003002001B582B0BE
:104CC0004FF47A70012301AA02A900900248FDF76F
:104CD00069F89DF804000EBD3005002010490968F0
:104CE000096821F040010E4A126811600C490968F8
:104CF00009684FF6C7721140094A126811600849E5
:104D00000968096841EAC001054A1268116004494E
:104D10000968096841F04001014A12681160704752
:104D2000300500202DE9F04192B080460C46154632
:104D30001E46002700BF002000902A48006840F06F
:104D40008050284908600846006800F080500090B4
:104D500000BF00BF00BF002000902348006840F45F
:104D60008040214908600846006800F480400090B7
:104D700000BF00BF012001900004029002200790B4
:104D800041050891CDF8288009940B950C9601A84F
:104D9000FCF72CFB07461FB1012012B0BDE8F081E3
:104DA0000F200D9002200E9000200F904FF4A05085
:104DB00010904FF48050119005210DA8FCF7D6F902
:104DC00007460FB10120E8E7FBF736FF41F201018A
:104DD000884205D10548006840F4807003490860A6
:104DE0000020DAE74038024000700040003C0240FA
:104DF00030B589B026A30FCB05AC0FC400200190BD
:104E000002900390049026A0FBF7DCFA2CA0FBF79D
:104E1000D9FAFEF774FE05462DB12FA0FBF7D2FAA2
:104E2000012009B030BD33A0FBF7CCFA36A0FBF768
:104E3000C9FA102205A90020FEF7B4FE0A20FFF7E8
:104E400053F837A0FBF7BEFA102201A90020FEF7A5
:104E50006EFE38A0FBF7B6FA002411E005A8005D4D
:104E600001A9095D884209D001A8035D05A8025D7A
:104E7000214635A0FBF7A6FA0120D2E7601CC4B298
:104E8000102CEBDB40A0FBF79DFA0020C9E70000E7
:104E90000102030405060708090A0B0C0D0E0F108A
:104EA0000D0A3D3D3D2041543234433032204545CA
:104EB00050524F4D2054657374203D3D3D0000001D
:104EC0000D0A436865636B696E6720415432344351
:104ED00030322E2E2E0D0A0041543234433032200F
:104EE0004E6F7420466F756E64202D204641494CEC
:104EF000210D0A004154323443303220466F756E22
:104F000064210D0A0000000057726974696E672001
:104F10007465737420646174612E2E2E0D0A000076
:104F200052656164696E6720646174612E2E2E0D76
:104F30000A000000566572696679696E67206461CF
:104F400074612E2E2E0D0A0044617461206D697308
:104F50006D617463682061742062797465202564D2
:104F60003A2077726F7465203078253032582C20C3
:104F70007265616420307825303258202D204641FA
:104F8000494C210D0A000000415432344330322094
:104F900054657374202D204F4B210D0A0000000032
:104FA00070B5002520A0FBF70DFA24A0FBF70AFA44
:104FB0002CA0FBF707FA30E00020FFF759FB04466E
:104FC000012C0AD132A0FBF7FDF900BF610236487F
:104FD000FBF722FE00BF002070BD022C0AD133A0D7
:104FE000FBF7F0F900BF21022F48FBF715FE00BFC9
:104FF0000020F1E7032C0BD132A0FBF7E3F900BF4F
:105000004FF400712848FBF707FE00BF0020E3E7DC
:105010006420FEF769FF681CC5B2642DCCDB2FA0AD
:10502000FBF7D0F90120D7E70D0A3D3D3D204B4568
:10503000592054657374203D3D3D00000D0A5072A7
:10504000657373204B4559302C204B4559312C202A
:105050006F72204B45593220746F20746573742E23
:105060002E2E00000D0A57616974696E6720666F05
:1050700072206B6579207072657373202874696D76
:10508000656F757420313073292E2E2E0D0A0000A5
:105090004B4559302050726573736564202D204F45
:1050A0004B210D0A00000000001402404B4559310D
:1050B0002050726573736564202D204F4B210D0ABB
:1050C000000000004B4559322050726573736564CF
:1050D000202D204F4B210D0A000000004B45592088
:1050E000546573742054494D454F5554202D204626
:1050F00041494C210D0A000008B534A0FBF762F9C4
:1051000037A0FBF75FF9FFF775FBFFF73DFDC82000
:10511000FEF7EAFE0120FFF799FCFFF735FD4FF49B
:10512000FA70FEF7E1FEFFF765FBFFF72DFDC820E3
:10513000FEF7DAFE01202C236C220A21009008469B
:10514000FFF746FC0120282368220C210090084626
:10515000FFF73EFCFFF718FD4FF4FA70FEF7C4FEB0
:10516000FFF748FB0123142220214020FFF747FBD3
:1051700001230F2220214020FFF741FBFFF704FD10
:105180004FF4FA70FEF7B0FEFFF734FB01203F2327
:105190007F22002100900846FFF7A1FB0120002399
:1051A0007F223F2100901846FFF799FBFFF7ECFCA8
:1051B0004FF4FA70FEF798FEFFF71CFBFFF7E4FCD4
:1051C0000EA0FBF7FFF8002008BD00000D0A3D3DD2
:1051D0003D204F4C45442054657374203D3D3D00B7
:1051E0000D0A54657374696E67204F4C4544206402
:1051F0006973706C61792E2E2E0D0A004F4C454458
:105200002054657374202D204F4B210D0A0000009F
:1052100030B589B01EA0FBF7D5F823A0FBF7D2F874
:10522000FFF724FD044634B1214626A0FBF7CAF857
:10523000012009B030BD2EA0FBF7C4F801A8FEF78D
:105240001FFF0446002C1ED12F48C16D006EA1FB2C
:105250000010020342EA11552CA0FBF7B3F82FA06F
:105260000199FBF7AFF832A00299FBF7ABF836A033
:105270000699FBF7A7F83BA00599FBF7A3F8294689
:105280003DA0FBF79FF841A0FBF79CF80020D0E77A
:105290000D0A3D3D3D205344204361726420546516
:1052A0007374203D3D3D00000D0A496E69746961CB
:1052B0006C697A696E6720534420636172642E2E94
:1052C0002E0D0A005344204361726420496E6974B4
:1052D000204661696C656420284572726F723A20BD
:1052E000256429202D204641494C210D0A0000004B
:1052F0005344204361726420496E6974202D204F0D
:105300004B210D0A000000008C0200205344204372
:1053100061726420496E666F3A0D0A002020436175
:10532000726420547970653A2025640D0A000000EB
:105330002020436172642056657273696F6E3A2053
:1053400025640D0A000000002020426C6F636B2072
:1053500053697A653A2025642062797465730D0A71
:10536000000000002020426C6F636B20436F756E5D
:10537000743A2025640D0A0020204361706163693E
:1053800074793A202564204D420D0A00534420438D
:105390006172642054657374202D204F4B210D0AD7
:1053A0000000000010B5044609480A490860084694
:1053B000446000218160C160016181610C21416113
:1053C000FDF73AF8012204490248FDF7D3F810BD71
:1053D00000440040480200201200002030B595B083
:1053E000054613AB12AA09A9284600F03FFA044665
:1053F00014B1204615B030BD0020149026E022499B
:1054000009689DF8502001EBC20113AB11AA48684E
:1054100001A900F02BFA04460CB12046EAE709A9DD
:1054200001A800F0AFFC60B99DF844009DF8481059
:10543000884201DD0220DDE79DF8500012498875A1
:105440000AE09DF85000401CC0B214900E48007D48
:105450009DF850108842D2DC00BF0B48007D9DF8BB
:105460005010884201D10420C4E714A9284600F056
:10547000DDFA04460CB12046BCE79DF85000024915
:1054800048750020B6E700008C0000202DE9F041AF
:105490009AB09C48847D007DA04202DC1AB0BDE831
:1054A000F0819849096801EBC40106AB07AA486876
:1054B00008A900F0DBF908A993A0FAF783FF0026FA
:1054C00044E09048008B0121B1400840D8B122212E
:1054D0008FA0FAF777FF304600F042FB894924316C
:1054E000471839468BA0FAF76DFF222188A0FAF7FA
:1054F00069FF304600F034FB82492431084410A98A
:1055000041F8260018E0304600F02AFB7D4924319E
:10551000085810A941F826007A48C07D30B910A873
:1055200050F826107CA0FAF74DFF05E010A850F8BF
:1055300026107AA0FAF746FF9DF81C00401EB042E4
:1055400002D078A0FAF73EFF701CC6B29DF81C008E
:105550008642B6DB74A0FAF735FF01F009F8694816
:10556000407D0B280DD2DFE800F0060D151E273216
:105570003F4E5F7287006349096851F834008047E5
:10558000054690E05F4A126852F834101098884738
:10559000054688E05B4B1B6853F83420DDE91001B9
:1055A000904705467FE0574F3F6857F8343010A8C2
:1055B00007C89847054676E0DFF848C1DCF800C028
:1055C0005CF8347010A80FC8B84705466BE0149813
:1055D000DFF830C10090DCF800C05CF8347010A82F
:1055E0000FC8B84705465EE0DDE91401DFF814C1D5
:1055F000CDE90001DCF800C05CF8347010A80FC8D9
:10560000B84705464FE0DDE914121698DFF8F4C0FC
:10561000CDE900120290DCF800C05CF8347010A8EC
:105620000FC8B84705463EE0DDE91423DDE9161052
:10563000DFF8D0C0CDE90023CDE90210DCF800C0CE
:105640005CF8347010A80FC8B84705462BE0DDE9B8
:105650001523DDE91710CDE90123CDE903101498D6
:10566000DFF8A0C00090DCF800C05CF8347010A82F
:105670000FC8B847054616E0DDE91623DDE9181026
:10568000CDE90223CDE90410DDE91401DFF874C08F
:10569000CDE90001DCF800C05CF8347010A80FC838
:1056A000B847054600BF00BF00F00EFF9DF8180088
:1056B00001280CD11348C07D20B929461BA0FAF758
:1056C00081FE07E029461BA0FAF77CFE02E018A045
:1056D000FAF778FE0B4890F8EC0088B10948D0F84A
:1056E000F0000A21B0FBF1F201FB12070548D0F8E7
:1056F000F000B0FBF1F83A46414611A0FAF762FE1D
:1057000000BFCBE68C0000200D0A257328000000A6
:105710002563000025730000256C6400305825586F
:10572000000000002C000000290000003D256C75E1
:105730003B0D0A003D305825583B0D0A0000000083
:1057400046756E6374696F6E2052756E2054696D74
:10575000653A25642E2531646D730D0A0000000042
:10576000F0B50346154600200022002600245BE029
:105770001F782C2F01D104B901221F78292F01D0C5
:105780001F780FB904B950E0002E3AD11F78302F9E
:1057900002DB1F78392F17DD1F782D2F14D01F78CB
:1057A0002B2F11D01F78612F02DB1F78662F0BDDA6
:1057B0001F78412F02DB1F78462F05DD1F78582FF9
:1057C00002D01F78782F0CD102B12EE01F78612F04
:1057D00003DB1F78203F0F7001E01F780F70491C1A
:1057E0001FE01F78222F04D102B11EE00126012400
:1057F00017E01F78202F14D01F782C2F11D0FF26F0
:1058000013E01F78222F00D1002402B10DE044B133
:105810001F785C2F02D15B1C471CF8B21F780F70F9
:10582000491C471CF8B25B1CA2E700BF00270F70A1
:105830002E70F0BD10B50446002010700BE02078EB
:105840000870641C491C1078401C10701078984235
:1058500001DB012010BD2078202802D0207800280C
:10586000EDD10020087000BFF4E700002DE9FF4FE4
:1058700085B08046894600270020049003900120CF
:1058800002904FF0000B002544461DE020782028B0
:1058900016D005F07F00052812DA0DB945F0800515
:1058A00005F07F00042803D120782A2800D00EE0DC
:1058B000207805F07F010DF80100681CC5B202E0F8
:1058C000852D00D103E0641C20780028DED100BFC4
:1058D0008DB1002005F07F010DF8010051A168464F
:1058E00000F050FA18B900210898017002E0012177
:1058F0000898017000254FF0000A444614E0641C2B
:105900000AF1010000F0FF0A2078202802D0207858
:105910002A2809D1204600F0A7F90646282E03D0F0
:105920002A2E01D0CDF810A02078282802D0207887
:105930000028E4D14446049810B10498401C044463
:105940004FF0000A002654E0207810B94FF0010A09
:1059500050E02078282803D116B9781CC7B213E08C
:105960002078292808D13EB917B1781EC7B201E0C6
:105970004FF0010A47B93DE02078222804D10EB942
:10598000012000E00020064647B9207820282FD0CB
:10599000207889F8000009F1010929E020782C28F5
:1059A00004D101200290681CC5B214E020782028A0
:1059B00011D0207828280ED04DB9BBF1050F06DA9A
:1059C00020780DF80B000BF1010000F0FF0B02989E
:1059D000401CC0B20290012F0AD10298022807D1C0
:1059E0000298401CC0B202900398401CC0B20390C1
:1059F000641CA9E700BF0398012809D100200DF815
:105A00000B0008A1684600F0BDF908B9002003901A
:105A1000079903980870002089F80000504609B0E3
:105A2000BDE8F08F766F6964000000002DE9F04357
:105A3000B5B005460F460024002604E000213D488D
:105A40008155701CC6B20A2EF8DB06E06D1C287862
:105A500018B9012035B0BDE8F08328782828F5D1A1
:105A60006D1C61E034AA69462846FFF779FE0646B8
:105A700035449DF8D00020B1012827D0FF284CD113
:105A800049E09DF8000000B333A9684600F0F7F83C
:105A900006460EB10220DDE7204600F061F82549F8
:105AA0000A31339A0A50A1F12400008B0121A14050
:105AB000884320491A39088304211E480155601C77
:105AC000C4B20A2C01DD0320C4E726E0684600F0DA
:105AD00075F9401C00F0FF08204600F041F8154918
